{
  "_format": "hh3-artifact-1",
  "contractName": "BearthUpgradeNFT",
  "sourceName": "contracts/BearthUpgradeNFT.sol",
  "abi": [
    {
      "inputs": [
        {
          "internalType": "address",
          "name": "adminWallet",
          "type": "address"
        },
        {
          "internalType": "string",
          "name": "baseURI_",
          "type": "string"
        }
      ],
      "stateMutability": "nonpayable",
      "type": "constructor"
    },
    {
      "inputs": [],
      "name": "AccessControlBadConfirmation",
      "type": "error"
    },
    {
      "inputs": [
        {
          "internalType": "address",
          "name": "account",
          "type": "address"
        },
        {
          "internalType": "bytes32",
          "name": "neededRole",
          "type": "bytes32"
        }
      ],
      "name": "AccessControlUnauthorizedAccount",
      "type": "error"
    },
    {
      "inputs": [
        {
          "internalType": "uint256",
          "name": "numerator",
          "type": "uint256"
        },
        {
          "internalType": "uint256",
          "name": "denominator",
          "type": "uint256"
        }
      ],
      "name": "ERC2981InvalidDefaultRoyalty",
      "type": "error"
    },
    {
      "inputs": [
        {
          "internalType": "address",
          "name": "receiver",
          "type": "address"
        }
      ],
      "name": "ERC2981InvalidDefaultRoyaltyReceiver",
      "type": "error"
    },
    {
      "inputs": [
        {
          "internalType": "uint256",
          "name": "tokenId",
          "type": "uint256"
        },
        {
          "internalType": "uint256",
          "name": "numerator",
          "type": "uint256"
        },
        {
          "internalType": "uint256",
          "name": "denominator",
          "type": "uint256"
        }
      ],
      "name": "ERC2981InvalidTokenRoyalty",
      "type": "error"
    },
    {
      "inputs": [
        {
          "internalType": "uint256",
          "name": "tokenId",
          "type": "uint256"
        },
        {
          "internalType": "address",
          "name": "receiver",
          "type": "address"
        }
      ],
      "name": "ERC2981InvalidTokenRoyaltyReceiver",
      "type": "error"
    },
    {
      "inputs": [
        {
          "internalType": "address",
          "name": "sender",
          "type": "address"
        },
        {
          "internalType": "uint256",
          "name": "tokenId",
          "type": "uint256"
        },
        {
          "internalType": "address",
          "name": "owner",
          "type": "address"
        }
      ],
      "name": "ERC721IncorrectOwner",
      "type": "error"
    },
    {
      "inputs": [
        {
          "internalType": "address",
          "name": "operator",
          "type": "address"
        },
        {
          "internalType": "uint256",
          "name": "tokenId",
          "type": "uint256"
        }
      ],
      "name": "ERC721InsufficientApproval",
      "type": "error"
    },
    {
      "inputs": [
        {
          "internalType": "address",
          "name": "approver",
          "type": "address"
        }
      ],
      "name": "ERC721InvalidApprover",
      "type": "error"
    },
    {
      "inputs": [
        {
          "internalType": "address",
          "name": "operator",
          "type": "address"
        }
      ],
      "name": "ERC721InvalidOperator",
      "type": "error"
    },
    {
      "inputs": [
        {
          "internalType": "address",
          "name": "owner",
          "type": "address"
        }
      ],
      "name": "ERC721InvalidOwner",
      "type": "error"
    },
    {
      "inputs": [
        {
          "internalType": "address",
          "name": "receiver",
          "type": "address"
        }
      ],
      "name": "ERC721InvalidReceiver",
      "type": "error"
    },
    {
      "inputs": [
        {
          "internalType": "address",
          "name": "sender",
          "type": "address"
        }
      ],
      "name": "ERC721InvalidSender",
      "type": "error"
    },
    {
      "inputs": [
        {
          "internalType": "uint256",
          "name": "tokenId",
          "type": "uint256"
        }
      ],
      "name": "ERC721NonexistentToken",
      "type": "error"
    },
    {
      "inputs": [],
      "name": "ReentrancyGuardReentrantCall",
      "type": "error"
    },
    {
      "anonymous": false,
      "inputs": [
        {
          "indexed": true,
          "internalType": "address",
          "name": "owner",
          "type": "address"
        },
        {
          "indexed": true,
          "internalType": "address",
          "name": "approved",
          "type": "address"
        },
        {
          "indexed": true,
          "internalType": "uint256",
          "name": "tokenId",
          "type": "uint256"
        }
      ],
      "name": "Approval",
      "type": "event"
    },
    {
      "anonymous": false,
      "inputs": [
        {
          "indexed": true,
          "internalType": "address",
          "name": "owner",
          "type": "address"
        },
        {
          "indexed": true,
          "internalType": "address",
          "name": "operator",
          "type": "address"
        },
        {
          "indexed": false,
          "internalType": "bool",
          "name": "approved",
          "type": "bool"
        }
      ],
      "name": "ApprovalForAll",
      "type": "event"
    },
    {
      "anonymous": false,
      "inputs": [
        {
          "indexed": false,
          "internalType": "string",
          "name": "newURI",
          "type": "string"
        }
      ],
      "name": "BaseURIUpdated",
      "type": "event"
    },
    {
      "anonymous": false,
      "inputs": [
        {
          "indexed": true,
          "internalType": "address",
          "name": "to",
          "type": "address"
        },
        {
          "indexed": true,
          "internalType": "uint256",
          "name": "tokenId",
          "type": "uint256"
        },
        {
          "indexed": false,
          "internalType": "uint8",
          "name": "rarity",
          "type": "uint8"
        }
      ],
      "name": "Minted",
      "type": "event"
    },
    {
      "anonymous": false,
      "inputs": [
        {
          "indexed": true,
          "internalType": "bytes32",
          "name": "role",
          "type": "bytes32"
        },
        {
          "indexed": true,
          "internalType": "bytes32",
          "name": "previousAdminRole",
          "type": "bytes32"
        },
        {
          "indexed": true,
          "internalType": "bytes32",
          "name": "newAdminRole",
          "type": "bytes32"
        }
      ],
      "name": "RoleAdminChanged",
      "type": "event"
    },
    {
      "anonymous": false,
      "inputs": [
        {
          "indexed": true,
          "internalType": "bytes32",
          "name": "role",
          "type": "bytes32"
        },
        {
          "indexed": true,
          "internalType": "address",
          "name": "account",
          "type": "address"
        },
        {
          "indexed": true,
          "internalType": "address",
          "name": "sender",
          "type": "address"
        }
      ],
      "name": "RoleGranted",
      "type": "event"
    },
    {
      "anonymous": false,
      "inputs": [
        {
          "indexed": true,
          "internalType": "bytes32",
          "name": "role",
          "type": "bytes32"
        },
        {
          "indexed": true,
          "internalType": "address",
          "name": "account",
          "type": "address"
        },
        {
          "indexed": true,
          "internalType": "address",
          "name": "sender",
          "type": "address"
        }
      ],
      "name": "RoleRevoked",
      "type": "event"
    },
    {
      "anonymous": false,
      "inputs": [
        {
          "indexed": true,
          "internalType": "address",
          "name": "from",
          "type": "address"
        },
        {
          "indexed": true,
          "internalType": "address",
          "name": "to",
          "type": "address"
        },
        {
          "indexed": true,
          "internalType": "uint256",
          "name": "tokenId",
          "type": "uint256"
        }
      ],
      "name": "Transfer",
      "type": "event"
    },
    {
      "inputs": [],
      "name": "DEFAULT_ADMIN_ROLE",
      "outputs": [
        {
          "internalType": "bytes32",
          "name": "",
          "type": "bytes32"
        }
      ],
      "stateMutability": "view",
      "type": "function"
    },
    {
      "inputs": [],
      "name": "MINTER_ROLE",
      "outputs": [
        {
          "internalType": "bytes32",
          "name": "",
          "type": "bytes32"
        }
      ],
      "stateMutability": "view",
      "type": "function"
    },
    {
      "inputs": [
        {
          "internalType": "address",
          "name": "to",
          "type": "address"
        },
        {
          "internalType": "uint256",
          "name": "tokenId",
          "type": "uint256"
        }
      ],
      "name": "approve",
      "outputs": [],
      "stateMutability": "nonpayable",
      "type": "function"
    },
    {
      "inputs": [
        {
          "internalType": "address",
          "name": "owner",
          "type": "address"
        }
      ],
      "name": "balanceOf",
      "outputs": [
        {
          "internalType": "uint256",
          "name": "",
          "type": "uint256"
        }
      ],
      "stateMutability": "view",
      "type": "function"
    },
    {
      "inputs": [
        {
          "internalType": "uint256",
          "name": "tokenId",
          "type": "uint256"
        }
      ],
      "name": "getApproved",
      "outputs": [
        {
          "internalType": "address",
          "name": "",
          "type": "address"
        }
      ],
      "stateMutability": "view",
      "type": "function"
    },
    {
      "inputs": [
        {
          "internalType": "bytes32",
          "name": "role",
          "type": "bytes32"
        }
      ],
      "name": "getRoleAdmin",
      "outputs": [
        {
          "internalType": "bytes32",
          "name": "",
          "type": "bytes32"
        }
      ],
      "stateMutability": "view",
      "type": "function"
    },
    {
      "inputs": [
        {
          "internalType": "bytes32",
          "name": "role",
          "type": "bytes32"
        },
        {
          "internalType": "address",
          "name": "account",
          "type": "address"
        }
      ],
      "name": "grantRole",
      "outputs": [],
      "stateMutability": "nonpayable",
      "type": "function"
    },
    {
      "inputs": [
        {
          "internalType": "bytes32",
          "name": "role",
          "type": "bytes32"
        },
        {
          "internalType": "address",
          "name": "account",
          "type": "address"
        }
      ],
      "name": "hasRole",
      "outputs": [
        {
          "internalType": "bool",
          "name": "",
          "type": "bool"
        }
      ],
      "stateMutability": "view",
      "type": "function"
    },
    {
      "inputs": [
        {
          "internalType": "address",
          "name": "owner",
          "type": "address"
        },
        {
          "internalType": "address",
          "name": "operator",
          "type": "address"
        }
      ],
      "name": "isApprovedForAll",
      "outputs": [
        {
          "internalType": "bool",
          "name": "",
          "type": "bool"
        }
      ],
      "stateMutability": "view",
      "type": "function"
    },
    {
      "inputs": [
        {
          "internalType": "address",
          "name": "to",
          "type": "address"
        },
        {
          "internalType": "uint8",
          "name": "rarity",
          "type": "uint8"
        }
      ],
      "name": "mint",
      "outputs": [
        {
          "internalType": "uint256",
          "name": "tokenId",
          "type": "uint256"
        }
      ],
      "stateMutability": "nonpayable",
      "type": "function"
    },
    {
      "inputs": [],
      "name": "name",
      "outputs": [
        {
          "internalType": "string",
          "name": "",
          "type": "string"
        }
      ],
      "stateMutability": "view",
      "type": "function"
    },
    {
      "inputs": [
        {
          "internalType": "uint256",
          "name": "tokenId",
          "type": "uint256"
        }
      ],
      "name": "ownerOf",
      "outputs": [
        {
          "internalType": "address",
          "name": "",
          "type": "address"
        }
      ],
      "stateMutability": "view",
      "type": "function"
    },
    {
      "inputs": [
        {
          "internalType": "bytes32",
          "name": "role",
          "type": "bytes32"
        },
        {
          "internalType": "address",
          "name": "callerConfirmation",
          "type": "address"
        }
      ],
      "name": "renounceRole",
      "outputs": [],
      "stateMutability": "nonpayable",
      "type": "function"
    },
    {
      "inputs": [
        {
          "internalType": "bytes32",
          "name": "role",
          "type": "bytes32"
        },
        {
          "internalType": "address",
          "name": "account",
          "type": "address"
        }
      ],
      "name": "revokeRole",
      "outputs": [],
      "stateMutability": "nonpayable",
      "type": "function"
    },
    {
      "inputs": [
        {
          "internalType": "uint256",
          "name": "tokenId",
          "type": "uint256"
        },
        {
          "internalType": "uint256",
          "name": "salePrice",
          "type": "uint256"
        }
      ],
      "name": "royaltyInfo",
      "outputs": [
        {
          "internalType": "address",
          "name": "receiver",
          "type": "address"
        },
        {
          "internalType": "uint256",
          "name": "amount",
          "type": "uint256"
        }
      ],
      "stateMutability": "view",
      "type": "function"
    },
    {
      "inputs": [
        {
          "internalType": "address",
          "name": "from",
          "type": "address"
        },
        {
          "internalType": "address",
          "name": "to",
          "type": "address"
        },
        {
          "internalType": "uint256",
          "name": "tokenId",
          "type": "uint256"
        }
      ],
      "name": "safeTransferFrom",
      "outputs": [],
      "stateMutability": "nonpayable",
      "type": "function"
    },
    {
      "inputs": [
        {
          "internalType": "address",
          "name": "from",
          "type": "address"
        },
        {
          "internalType": "address",
          "name": "to",
          "type": "address"
        },
        {
          "internalType": "uint256",
          "name": "tokenId",
          "type": "uint256"
        },
        {
          "internalType": "bytes",
          "name": "data",
          "type": "bytes"
        }
      ],
      "name": "safeTransferFrom",
      "outputs": [],
      "stateMutability": "nonpayable",
      "type": "function"
    },
    {
      "inputs": [
        {
          "internalType": "address",
          "name": "operator",
          "type": "address"
        },
        {
          "internalType": "bool",
          "name": "approved",
          "type": "bool"
        }
      ],
      "name": "setApprovalForAll",
      "outputs": [],
      "stateMutability": "nonpayable",
      "type": "function"
    },
    {
      "inputs": [
        {
          "internalType": "string",
          "name": "uri",
          "type": "string"
        }
      ],
      "name": "setBaseURI",
      "outputs": [],
      "stateMutability": "nonpayable",
      "type": "function"
    },
    {
      "inputs": [
        {
          "internalType": "address",
          "name": "receiver",
          "type": "address"
        },
        {
          "internalType": "uint96",
          "name": "feeBps",
          "type": "uint96"
        }
      ],
      "name": "setDefaultRoyalty",
      "outputs": [],
      "stateMutability": "nonpayable",
      "type": "function"
    },
    {
      "inputs": [
        {
          "internalType": "uint256",
          "name": "tokenId",
          "type": "uint256"
        },
        {
          "internalType": "address",
          "name": "receiver",
          "type": "address"
        },
        {
          "internalType": "uint96",
          "name": "feeBps",
          "type": "uint96"
        }
      ],
      "name": "setTokenRoyalty",
      "outputs": [],
      "stateMutability": "nonpayable",
      "type": "function"
    },
    {
      "inputs": [
        {
          "internalType": "bytes4",
          "name": "id",
          "type": "bytes4"
        }
      ],
      "name": "supportsInterface",
      "outputs": [
        {
          "internalType": "bool",
          "name": "",
          "type": "bool"
        }
      ],
      "stateMutability": "view",
      "type": "function"
    },
    {
      "inputs": [],
      "name": "symbol",
      "outputs": [
        {
          "internalType": "string",
          "name": "",
          "type": "string"
        }
      ],
      "stateMutability": "view",
      "type": "function"
    },
    {
      "inputs": [
        {
          "internalType": "uint256",
          "name": "",
          "type": "uint256"
        }
      ],
      "name": "tokenRarity",
      "outputs": [
        {
          "internalType": "uint8",
          "name": "",
          "type": "uint8"
        }
      ],
      "stateMutability": "view",
      "type": "function"
    },
    {
      "inputs": [
        {
          "internalType": "uint256",
          "name": "tokenId",
          "type": "uint256"
        }
      ],
      "name": "tokenURI",
      "outputs": [
        {
          "internalType": "string",
          "name": "",
          "type": "string"
        }
      ],
      "stateMutability": "view",
      "type": "function"
    },
    {
      "inputs": [
        {
          "internalType": "address",
          "name": "from",
          "type": "address"
        },
        {
          "internalType": "address",
          "name": "to",
          "type": "address"
        },
        {
          "internalType": "uint256",
          "name": "tokenId",
          "type": "uint256"
        }
      ],
      "name": "transferFrom",
      "outputs": [],
      "stateMutability": "nonpayable",
      "type": "function"
    }
  ],
  "bytecode": "0x60806040523461055757612010803803806100198161055b565b9283398101906040818303126105575780516001600160a01b03811691828203610557576020810151906001600160401b038211610557570183601f82011215610557578051906001600160401b03821161034257610081601f8301601f191660200161055b565b948286526020838301011161055757815f9260208093018388015e850101526040916100ac8361055b565b600e81526d426561727468205570677261646560901b60208201526100d08461055b565b60048152634255504760e01b6020820152815190916001600160401b038211610342575f5490600182811c9216801561054d575b60208310146103245781601f8493116104e0575b50602090601f831160011461047d575f92610472575b50508160011b915f199060031b1c1916175f555b8051906001600160401b0382116103425760015490600182811c92168015610468575b60208310146103245781601f8493116103fa575b50602090601f8311600114610394575f92610389575b50508160011b915f199060031b1c1916176001555b60017f9b779b17422d0df92223018b32b4d1fa46e071723d6817e2486d003becc55f0055600160095515610356576101e5906101df33610580565b50610580565b5081516001600160401b03811161034257600a54600181811c91168015610338575b602082101461032457601f81116102c1575b50602092601f821160011461026057928192935f92610255575b50508160011b915f199060031b1c191617600a555b516119e6908161060a8239f35b015190505f80610233565b601f19821693600a5f52805f20915f5b8681106102a95750836001959610610291575b505050811b01600a55610248565b01515f1960f88460031b161c191690555f8080610283565b91926020600181928685015181550194019201610270565b600a5f527fc65a7bb8d6351c1cf70c95a316cc6a92839c986682d98bc35f958f4883f9d2a8601f830160051c8101916020841061031a575b601f0160051c01905b81811061030f5750610219565b5f8155600101610302565b90915081906102f9565b634e487b7160e01b5f52602260045260245ffd5b90607f1690610207565b634e487b7160e01b5f52604160045260245ffd5b815162461bcd60e51b815260206004820152600c60248201526b5a65726f206164647265737360a01b6044820152606490fd5b015190505f8061018f565b60015f9081528281209350601f198516905b8181106103e257509084600195949392106103ca575b505050811b016001556101a4565b01515f1960f88460031b161c191690555f80806103bc565b929360206001819287860151815501950193016103a6565b60015f529091507fb10e2d527612073b26eecdfd717e6a320cf44b4afac2b0732d9fcbe2b7fa0cf6601f840160051c8101916020851061045e575b90601f859493920160051c01905b8181106104505750610179565b5f8155849350600101610443565b9091508190610435565b91607f1691610165565b015190505f8061012e565b5f8080528281209350601f198516905b8181106104c857509084600195949392106104b0575b505050811b015f55610142565b01515f1960f88460031b161c191690555f80806104a3565b9293602060018192878601518155019501930161048d565b5f80529091507f290decd9548b62a8d60345a988386fc84ba6bc95484008f6362f93160ef3e563601f840160051c81019160208510610543575b90601f859493920160051c01905b8181106105355750610118565b5f8155849350600101610528565b909150819061051a565b91607f1691610104565b5f80fd5b6040519190601f01601f191682016001600160401b0381118382101761034257604052565b6001600160a01b0381165f9081525f516020611ff05f395f51905f52602052604090205460ff16610604576001600160a01b03165f8181525f516020611ff05f395f51905f5260205260408120805460ff191660011790553391907f2f8788117e7eff1d82e926ec794901d17c78024a50270940304540a733656f0d8180a4600190565b505f9056fe6080806040526004361015610012575f80fd5b5f3560e01c90816301ffc9a71461123b5750806304634d8d1461117f57806306fdde03146110dd578063081812fc146110a1578063095ea7b314610fb757806323b872dd14610fa0578063248a9ca314610f7a5780632a55205a14610eee5780632f2ff15d14610ebd57806336568abe14610e7957806342842e0e14610e4a57806355f804b314610c935780635944c75314610b625780636352211e14610b32578063691562a01461078f57806370a082311461073e57806391d14854146106f557806395d89b411461062b578063a217fddf14610611578063a22cb4651461055d578063afb0a36914610530578063b88d4fde1461049c578063c87b56dd146101f4578063d5391393146101cd578063d547741f146101955763e985e9c51461013a575f80fd5b34610191576040366003190112610191576101536112da565b61015b6112f0565b9060018060a01b03165f52600560205260405f209060018060a01b03165f52602052602060ff60405f2054166040519015158152f35b5f80fd5b34610191576040366003190112610191576101cb6004356101b46112f0565b906101c66101c1826115be565b61161f565b611719565b005b34610191575f3660031901126101915760206040515f5160206119315f395f51905f528152f35b346101915760203660031901126101915760043561021181611659565b50604051600a5490915f8361022584611413565b9182825260208201946001811690815f146104805750600114610434575b61024f92500384611393565b82511561041857915f90838072184f03e93ff9f4daa797ed6e38ed64bf6a1f0160401b8110156103f2575b50600a906904ee2d6d415b85acef8160201b8110156103d6575b662386f26fc100008110156103c2575b6305f5e1008110156103b1575b6127108110156103a2575b6064811015610394575b101561038a575b6001820193600a60216102f86102e2886113b6565b976102f0604051998a611393565b8089526113b6565b602088019590601f19013687378701015b5f1901916f181899199a1a9b1b9c1cb0b131b232b360811b8282061a83530490811561033757600a90610309565b5050602061037292610386956040519586945180918587015e840190838201905f8252519283915e01015f815203601f198101835282611393565b604051918291602083526020830190611306565b0390f35b90600101906102cd565b6064600291049301926102c6565b612710600491049301926102bc565b6305f5e100600891049301926102b1565b662386f26fc10000601091049301926102a4565b602093909301926904ee2d6d415b85acef8160201b9004610294565b6040935072184f03e93ff9f4daa797ed6e38ed64bf6a1f0160401b90049050600a61027a565b50505061038660405161042c602082611393565b5f8152610372565b50600a5f90815290915f5160206119115f395f51905f525b81831061046457505090602061024f92820101610243565b6020919350806001915483858a0101520191019091859261044c565b60ff191686525061024f92151560051b82016020019050610243565b34610191576080366003190112610191576104b56112da565b6104bd6112f0565b6064359190604435906001600160401b0384116101915736602385011215610191578360040135926104ee846113b6565b936104fc6040519586611393565b8085523660248288010111610191576020815f9260246101cb9901838901378601015261052a83838361144b565b3361179d565b34610191576020366003190112610191576004355f52600b602052602060ff60405f205416604051908152f35b34610191576040366003190112610191576105766112da565b602435908115158092036101915733156105fe576001600160a01b03169081156105eb57335f52600560205260405f20825f5260205260405f2060ff1981541660ff83161790556040519081527f17307eab39ab6107e8899845ad3d59bd9653f200f220920489ca2b5937696c3160203392a3005b50630b61174360e31b5f5260045260245ffd5b63a9fbf51f60e01b5f525f60045260245ffd5b34610191575f3660031901126101915760206040515f8152f35b34610191575f366003190112610191576040515f60015461064b81611413565b80845290600181169081156106d15750600114610673575b6103868361037281850382611393565b60015f9081527fb10e2d527612073b26eecdfd717e6a320cf44b4afac2b0732d9fcbe2b7fa0cf6939250905b8082106106b757509091508101602001610372610663565b91926001816020925483858801015201910190929161069f565b60ff191660208086019190915291151560051b840190910191506103729050610663565b346101915760403660031901126101915761070e6112f0565b6004355f52600860205260405f209060018060a01b03165f52602052602060ff60405f2054166040519015158152f35b34610191576020366003190112610191576001600160a01b0361075f6112da565b16801561077c575f526003602052602060405f2054604051908152f35b6322718ad960e21b5f525f60045260245ffd5b34610191576040366003190112610191576107a86112da565b6024359060ff821680920361019157335f9081527f51a495916474fe1a0c0fcfb65a8a97682b84a054118858cdd1f5dfd7fc0919eb602052604090205460ff1615610b0e5760025f5160206119715f395f51905f525414610aff5760025f5160206119715f395f51905f52556001600160a01b038116918215610acb57600281101580610ac0575b15610a8a57600954905f198214610a765760018201600955815f52600b60205260405f208160ff198254161790556020926040519061086f8583611393565b5f8083528481526002865260409020546001600160a01b03168015159081610a56575b87610a3f575b5f868152600288526040812080546001600160a01b0319168a1790558690899083905f5160206119515f395f51905f529080a450610a2c573b610909575b50835f5160206118f15f395f51905f52848493604051908152a360015f5160206119715f395f51905f5255604051908152f35b836109429160405180938192630a85bd0160e11b83523360048401525f6024840152876044840152608060648401526084830190611306565b03815f895af15f91816109ec575b506109a7575050503d5f1461099f573d9061096a826113b6565b916109786040519384611393565b82523d5f8284013e5b8151918261099c5783633250574960e11b5f5260045260245ffd5b01fd5b606090610981565b929391926001600160e01b03191663757a42ff60e11b016109d957909291905f5160206118f15f395f51905f526108d6565b50633250574960e11b5f5260045260245ffd5b9091508481813d8311610a25575b610a048183611393565b8101031261019157516001600160e01b031981168103610191579086610950565b503d6109fa565b6339e3563760e11b5f525f60045260245ffd5b875f526003875260405f2060018154019055610898565b610a5f866118d3565b805f526003875260405f205f198154019055610892565b634e487b7160e01b5f52601160045260245ffd5b60405162461bcd60e51b815260206004820152600e60248201526d496e76616c69642072617269747960901b6044820152606490fd5b506004811115610830565b60405162461bcd60e51b815260206004820152600c60248201526b5a65726f206164647265737360a01b6044820152606490fd5b633ee5aeb560e01b5f5260045ffd5b63e2517d3f60e01b5f52336004525f5160206119315f395f51905f5260245260445ffd5b34610191576020366003190112610191576020610b50600435611659565b6040516001600160a01b039091168152f35b3461019157606036600319011261019157600435610b7e6112f0565b6044356001600160601b038116919082900361019157610b9c6115d0565b610baa6103e88311156113d1565b5f838152600260205260409020546001600160a01b031615610c57576127108211610c3a576001600160a01b0316918215610c245760405192610bec84611364565b835260208084019283525f91825260079052604090209151905160a01b6001600160a01b0319166001600160a01b0391909116179055005b634b4f842960e11b5f526004525f60245260445ffd5b509063dfd1fc1b60e01b5f5260045260245261271060445260645ffd5b60405162461bcd60e51b8152602060048201526014602482015273151bdad95b88191bd95cc81b9bdd08195e1a5cdd60621b6044820152606490fd5b34610191576020366003190112610191576004356001600160401b03811161019157366023820112156101915760048101356001600160401b03811161019157366024828401011161019157610ce76115d0565b610cf2600a54611413565b601f8111610dfa575b505f601f8211600114610d71575f5160206119915f395f51905f5292826024936040935f91610d64575b508160011b905f198360031b1c191617600a555b8083519485936020855282602086015201848401375f828201840152601f01601f19168101030190a1005b8591508301013586610d25565b600a5f9081525f5160206119115f395f51905f529190601f198416905b818110610ddf5750926040925f5160206119915f395f51905f5295928260249610610dc4575b5050600181811b01600a55610d39565b83018501355f19600384901b60f8161c191690558580610db4565b91926020600181926024878a01013581550194019201610d8e565b600a5f525f5160206119115f395f51905f52601f830160051c81019160208410610e40575b601f0160051c01905b818110610e355750610cfb565b5f8155600101610e28565b9091508190610e1f565b34610191576101cb610e5b3661132a565b9060405192610e6b602085611393565b5f845261052a83838361144b565b3461019157604036600319011261019157610e926112f0565b336001600160a01b03821603610eae576101cb90600435611719565b63334bd91960e11b5f5260045ffd5b34610191576040366003190112610191576101cb600435610edc6112f0565b90610ee96101c1826115be565b61168d565b34610191576040366003190112610191576004355f90815260076020526040902054602435906001600160a01b0381169060a01c8115610f62575b6001600160601b03168281029280159084049091141715610a7657604080516001600160a01b0390921682526127109092046020820152f35b50506006546001600160a01b0381169060a01c610f29565b34610191576020366003190112610191576020610f986004356115be565b604051908152f35b34610191576101cb610fb13661132a565b9161144b565b3461019157604036600319011261019157610fd06112da565b602435610fdc81611659565b3315158061108e575b80611061575b61104e5781906001600160a01b0384811691167f8c5be1e5ebec7d5bd14f71427d1e84f3dd0314c0f7b2291e5b200ac8c7c3b9255f80a45f90815260046020526040902080546001600160a01b0319166001600160a01b03909216919091179055005b63a9fbf51f60e01b5f523360045260245ffd5b506001600160a01b0381165f90815260056020908152604080832033845290915290205460ff1615610feb565b506001600160a01b038116331415610fe5565b34610191576020366003190112610191576004356110be81611659565b505f526004602052602060018060a01b0360405f205416604051908152f35b34610191575f366003190112610191576040515f5f546110fc81611413565b80845290600181169081156106d15750600114611123576103868361037281850382611393565b5f8080527f290decd9548b62a8d60345a988386fc84ba6bc95484008f6362f93160ef3e563939250905b80821061116557509091508101602001610372610663565b91926001816020925483858801015201910190929161114d565b34610191576040366003190112610191576111986112da565b602435906001600160601b03821690818303610191576111b66115d0565b6111c46103e88311156113d1565b6127108211611222576001600160a01b031690811561120f5760206040516111eb81611364565b83815201526001600160a01b031660a09190911b6001600160a01b03191617600655005b635b6cc80560e11b5f525f60045260245ffd5b50636f483d0960e01b5f5260045261271060245260445ffd5b34610191576020366003190112610191576004359063ffffffff60e01b821680920361019157602091637965db0b60e01b811490811561127d575b5015158152f35b63152a902d60e11b811491508115611297575b5083611276565b6380ac58cd60e01b8114915081156112c9575b81156112b8575b5083611290565b6301ffc9a760e01b149050836112b1565b635b5e139f60e01b811491506112aa565b600435906001600160a01b038216820361019157565b602435906001600160a01b038216820361019157565b805180835260209291819084018484015e5f828201840152601f01601f1916010190565b6060906003190112610191576004356001600160a01b038116810361019157906024356001600160a01b0381168103610191579060443590565b604081019081106001600160401b0382111761137f57604052565b634e487b7160e01b5f52604160045260245ffd5b601f909101601f19168101906001600160401b0382119082101761137f57604052565b6001600160401b03811161137f57601f01601f191660200190565b156113d857565b60405162461bcd60e51b8152602060048201526013602482015272496e76616c696420726f79616c74792062707360681b6044820152606490fd5b90600182811c92168015611441575b602083101461142d57565b634e487b7160e01b5f52602260045260245ffd5b91607f1691611422565b6001600160a01b03909116919082156115ab575f828152600260205260409020546001600160a01b031692829033151580611516575b50846114f5575b805f52600360205260405f2060018154019055815f52600260205260405f208160018060a01b0319825416179055845f5160206119515f395f51905f525f80a46001600160a01b03168083036114dd57505050565b6364283d7b60e01b5f5260045260245260445260645ffd5b6114fe826118d3565b845f52600360205260405f205f198154019055611488565b9091508061155a575b1561152c5782905f611481565b828461154457637e27328960e01b5f5260045260245ffd5b63177e802f60e01b5f523360045260245260445ffd5b503384148015611589575b8061151f57505f838152600460205260409020546001600160a01b0316331461151f565b505f84815260056020908152604080832033845290915290205460ff16611565565b633250574960e11b5f525f60045260245ffd5b5f526008602052600160405f20015490565b335f9081527f5eff886ea0ce6ca488a3d6e336d6c0f75f46d19b42c06ce5ee98e42c96d256c7602052604090205460ff161561160857565b63e2517d3f60e01b5f52336004525f60245260445ffd5b5f81815260086020908152604080832033845290915290205460ff16156116435750565b63e2517d3f60e01b5f523360045260245260445ffd5b5f818152600260205260409020546001600160a01b031690811561167b575090565b637e27328960e01b5f5260045260245ffd5b5f8181526008602090815260408083206001600160a01b038616845290915290205460ff16611713575f8181526008602090815260408083206001600160a01b0395909516808452949091528120805460ff19166001179055339291907f2f8788117e7eff1d82e926ec794901d17c78024a50270940304540a733656f0d9080a4600190565b50505f90565b5f8181526008602090815260408083206001600160a01b038616845290915290205460ff1615611713575f8181526008602090815260408083206001600160a01b0395909516808452949091528120805460ff19169055339291907ff6391f5c32d9c69d2a47ea670b442974b53935d1edc7fd64eb21e047a839171b9080a4600190565b823b6117ab575b5050505050565b604051630a85bd0160e11b81526001600160a01b0391821660048201529181166024830152604482019390935260806064820152911691602090829081906117f7906084830190611306565b03815f865af15f918161188e575b5061185a57503d15611853573d61181b816113b6565b906118296040519283611393565b81523d5f602083013e5b8051908161184e5782633250574960e11b5f5260045260245ffd5b602001fd5b6060611833565b6001600160e01b03191663757a42ff60e11b0161187c57505f808080806117a4565b633250574960e11b5f5260045260245ffd5b9091506020813d6020116118cb575b816118aa60209383611393565b8101031261019157516001600160e01b03198116810361019157905f611805565b3d915061189d565b5f90815260046020526040902080546001600160a01b031916905556fedcb23284f3935b5557998e99dcc286e29744c5000723d99eecd5d6f5694f6e11c65a7bb8d6351c1cf70c95a316cc6a92839c986682d98bc35f958f4883f9d2a89f2df0fed2c77648de5860a4cc508cd0818c85b8b8a1ab4ceeef8d981c8956a6ddf252ad1be2c89b69c2b068fc378daa952ba7f163c4a11628f55a4df523b3ef9b779b17422d0df92223018b32b4d1fa46e071723d6817e2486d003becc55f006741b2fc379fad678116fe3d4d4b9a1a184ab53ba36b86ad0fa66340b1ab41ada26469706673582212203963fef3190d38f67b2fdb0772313081d6ae57bdbcc39d90853dd790724bcc8464736f6c634300081c00335eff886ea0ce6ca488a3d6e336d6c0f75f46d19b42c06ce5ee98e42c96d256c7",
  "linkReferences": {},
  "deployedLinkReferences": {},
  "immutableReferences": {},
  "inputSourceName": "project/contracts/BearthUpgradeNFT.sol",
  "buildInfoId": "solc-0_8_28-1b25e3091d540349106ac5ae3ec312dc4809cb84"
}