{
  "_format": "hh3-artifact-1",
  "contractName": "BearthNFT",
  "sourceName": "contracts/BearthNFT.sol",
  "abi": [
    {
      "inputs": [
        {
          "internalType": "string",
          "name": "name_",
          "type": "string"
        },
        {
          "internalType": "string",
          "name": "symbol_",
          "type": "string"
        },
        {
          "internalType": "string",
          "name": "blindBoxURI_",
          "type": "string"
        },
        {
          "internalType": "address",
          "name": "adminWallet",
          "type": "address"
        },
        {
          "internalType": "address",
          "name": "operationsWallet",
          "type": "address"
        },
        {
          "internalType": "address",
          "name": "treasury_",
          "type": "address"
        }
      ],
      "stateMutability": "nonpayable",
      "type": "constructor"
    },
    {
      "inputs": [],
      "name": "AccessControlBadConfirmation",
      "type": "error"
    },
    {
      "inputs": [
        {
          "internalType": "address",
          "name": "account",
          "type": "address"
        },
        {
          "internalType": "bytes32",
          "name": "neededRole",
          "type": "bytes32"
        }
      ],
      "name": "AccessControlUnauthorizedAccount",
      "type": "error"
    },
    {
      "inputs": [],
      "name": "AlreadyClaimed",
      "type": "error"
    },
    {
      "inputs": [],
      "name": "ApprovalCallerNotOwnerNorApproved",
      "type": "error"
    },
    {
      "inputs": [],
      "name": "ApprovalQueryForNonexistentToken",
      "type": "error"
    },
    {
      "inputs": [],
      "name": "BalanceQueryForZeroAddress",
      "type": "error"
    },
    {
      "inputs": [
        {
          "internalType": "uint256",
          "name": "numerator",
          "type": "uint256"
        },
        {
          "internalType": "uint256",
          "name": "denominator",
          "type": "uint256"
        }
      ],
      "name": "ERC2981InvalidDefaultRoyalty",
      "type": "error"
    },
    {
      "inputs": [
        {
          "internalType": "address",
          "name": "receiver",
          "type": "address"
        }
      ],
      "name": "ERC2981InvalidDefaultRoyaltyReceiver",
      "type": "error"
    },
    {
      "inputs": [
        {
          "internalType": "uint256",
          "name": "tokenId",
          "type": "uint256"
        },
        {
          "internalType": "uint256",
          "name": "numerator",
          "type": "uint256"
        },
        {
          "internalType": "uint256",
          "name": "denominator",
          "type": "uint256"
        }
      ],
      "name": "ERC2981InvalidTokenRoyalty",
      "type": "error"
    },
    {
      "inputs": [
        {
          "internalType": "uint256",
          "name": "tokenId",
          "type": "uint256"
        },
        {
          "internalType": "address",
          "name": "receiver",
          "type": "address"
        }
      ],
      "name": "ERC2981InvalidTokenRoyaltyReceiver",
      "type": "error"
    },
    {
      "inputs": [],
      "name": "EnforcedPause",
      "type": "error"
    },
    {
      "inputs": [],
      "name": "ExpectedPause",
      "type": "error"
    },
    {
      "inputs": [],
      "name": "InvalidAddress",
      "type": "error"
    },
    {
      "inputs": [],
      "name": "InvalidEmergencyTransfer",
      "type": "error"
    },
    {
      "inputs": [],
      "name": "InvalidParams",
      "type": "error"
    },
    {
      "inputs": [],
      "name": "InvalidQueryRange",
      "type": "error"
    },
    {
      "inputs": [],
      "name": "InvalidRarityTier",
      "type": "error"
    },
    {
      "inputs": [],
      "name": "InvalidRoyaltyParams",
      "type": "error"
    },
    {
      "inputs": [],
      "name": "InvalidURI",
      "type": "error"
    },
    {
      "inputs": [],
      "name": "InvalidWaveNum",
      "type": "error"
    },
    {
      "inputs": [],
      "name": "MarketplaceNotAllowed",
      "type": "error"
    },
    {
      "inputs": [],
      "name": "MintERC2309QuantityExceedsLimit",
      "type": "error"
    },
    {
      "inputs": [],
      "name": "MintToZeroAddress",
      "type": "error"
    },
    {
      "inputs": [],
      "name": "MintZeroQuantity",
      "type": "error"
    },
    {
      "inputs": [],
      "name": "NoBalance",
      "type": "error"
    },
    {
      "inputs": [],
      "name": "NotCompatibleWithSpotMints",
      "type": "error"
    },
    {
      "inputs": [],
      "name": "NotDutchWave",
      "type": "error"
    },
    {
      "inputs": [],
      "name": "NotWhitelisted",
      "type": "error"
    },
    {
      "inputs": [
        {
          "internalType": "address",
          "name": "owner",
          "type": "address"
        }
      ],
      "name": "OwnableInvalidOwner",
      "type": "error"
    },
    {
      "inputs": [
        {
          "internalType": "address",
          "name": "account",
          "type": "address"
        }
      ],
      "name": "OwnableUnauthorizedAccount",
      "type": "error"
    },
    {
      "inputs": [],
      "name": "OwnerQueryForNonexistentToken",
      "type": "error"
    },
    {
      "inputs": [],
      "name": "OwnershipNotInitializedForExtraData",
      "type": "error"
    },
    {
      "inputs": [],
      "name": "ProvenanceAlreadySet",
      "type": "error"
    },
    {
      "inputs": [],
      "name": "PurchaseLimitExceeded",
      "type": "error"
    },
    {
      "inputs": [],
      "name": "ReentrancyGuardReentrantCall",
      "type": "error"
    },
    {
      "inputs": [],
      "name": "RefundFailed",
      "type": "error"
    },
    {
      "inputs": [],
      "name": "SBTCannotBeApproved",
      "type": "error"
    },
    {
      "inputs": [],
      "name": "SequentialMintExceedsLimit",
      "type": "error"
    },
    {
      "inputs": [],
      "name": "SequentialUpToTooSmall",
      "type": "error"
    },
    {
      "inputs": [],
      "name": "SpotMintTokenIdTooSmall",
      "type": "error"
    },
    {
      "inputs": [],
      "name": "SupplyExceeded",
      "type": "error"
    },
    {
      "inputs": [],
      "name": "TokenAlreadyExists",
      "type": "error"
    },
    {
      "inputs": [],
      "name": "TokenRarityPriceLocked",
      "type": "error"
    },
    {
      "inputs": [],
      "name": "TransferCallerNotOwnerNorApproved",
      "type": "error"
    },
    {
      "inputs": [],
      "name": "TransferFailed",
      "type": "error"
    },
    {
      "inputs": [],
      "name": "TransferFromIncorrectOwner",
      "type": "error"
    },
    {
      "inputs": [],
      "name": "TransferNotAllowed",
      "type": "error"
    },
    {
      "inputs": [],
      "name": "TransferToNonERC721ReceiverImplementer",
      "type": "error"
    },
    {
      "inputs": [],
      "name": "TransferToZeroAddress",
      "type": "error"
    },
    {
      "inputs": [],
      "name": "URIQueryForNonexistentToken",
      "type": "error"
    },
    {
      "inputs": [],
      "name": "WaveAlreadyClosed",
      "type": "error"
    },
    {
      "inputs": [],
      "name": "WaveNotActive",
      "type": "error"
    },
    {
      "inputs": [],
      "name": "WavePriceLocked",
      "type": "error"
    },
    {
      "inputs": [],
      "name": "WaveSoldOut",
      "type": "error"
    },
    {
      "inputs": [],
      "name": "WaveStillActive",
      "type": "error"
    },
    {
      "inputs": [],
      "name": "WrongPayment",
      "type": "error"
    },
    {
      "inputs": [],
      "name": "WrongPhase",
      "type": "error"
    },
    {
      "anonymous": false,
      "inputs": [
        {
          "indexed": true,
          "internalType": "address",
          "name": "account",
          "type": "address"
        },
        {
          "indexed": false,
          "internalType": "uint256",
          "name": "timestamp",
          "type": "uint256"
        }
      ],
      "name": "AccountPaused",
      "type": "event"
    },
    {
      "anonymous": false,
      "inputs": [
        {
          "indexed": true,
          "internalType": "address",
          "name": "account",
          "type": "address"
        },
        {
          "indexed": false,
          "internalType": "uint256",
          "name": "timestamp",
          "type": "uint256"
        }
      ],
      "name": "AccountUnpaused",
      "type": "event"
    },
    {
      "anonymous": false,
      "inputs": [
        {
          "indexed": true,
          "internalType": "address",
          "name": "owner",
          "type": "address"
        },
        {
          "indexed": true,
          "internalType": "address",
          "name": "approved",
          "type": "address"
        },
        {
          "indexed": true,
          "internalType": "uint256",
          "name": "tokenId",
          "type": "uint256"
        }
      ],
      "name": "Approval",
      "type": "event"
    },
    {
      "anonymous": false,
      "inputs": [
        {
          "indexed": true,
          "internalType": "address",
          "name": "owner",
          "type": "address"
        },
        {
          "indexed": true,
          "internalType": "address",
          "name": "operator",
          "type": "address"
        },
        {
          "indexed": false,
          "internalType": "bool",
          "name": "approved",
          "type": "bool"
        }
      ],
      "name": "ApprovalForAll",
      "type": "event"
    },
    {
      "anonymous": false,
      "inputs": [
        {
          "indexed": true,
          "internalType": "address",
          "name": "from",
          "type": "address"
        },
        {
          "indexed": true,
          "internalType": "uint256",
          "name": "id",
          "type": "uint256"
        },
        {
          "indexed": false,
          "internalType": "uint256",
          "name": "timestamp",
          "type": "uint256"
        }
      ],
      "name": "Burned",
      "type": "event"
    },
    {
      "anonymous": false,
      "inputs": [
        {
          "indexed": true,
          "internalType": "uint256",
          "name": "fromTokenId",
          "type": "uint256"
        },
        {
          "indexed": false,
          "internalType": "uint256",
          "name": "toTokenId",
          "type": "uint256"
        },
        {
          "indexed": true,
          "internalType": "address",
          "name": "from",
          "type": "address"
        },
        {
          "indexed": true,
          "internalType": "address",
          "name": "to",
          "type": "address"
        }
      ],
      "name": "ConsecutiveTransfer",
      "type": "event"
    },
    {
      "anonymous": false,
      "inputs": [
        {
          "indexed": false,
          "internalType": "string",
          "name": "uri",
          "type": "string"
        }
      ],
      "name": "ContractURIUpdated",
      "type": "event"
    },
    {
      "anonymous": false,
      "inputs": [
        {
          "indexed": true,
          "internalType": "uint256",
          "name": "waveNum",
          "type": "uint256"
        },
        {
          "indexed": false,
          "internalType": "uint256",
          "name": "startPrice",
          "type": "uint256"
        },
        {
          "indexed": false,
          "internalType": "uint256",
          "name": "floorPrice",
          "type": "uint256"
        }
      ],
      "name": "DutchAuctionConfigured",
      "type": "event"
    },
    {
      "anonymous": false,
      "inputs": [
        {
          "indexed": true,
          "internalType": "uint256",
          "name": "id",
          "type": "uint256"
        },
        {
          "indexed": true,
          "internalType": "address",
          "name": "from",
          "type": "address"
        },
        {
          "indexed": true,
          "internalType": "address",
          "name": "to",
          "type": "address"
        },
        {
          "indexed": false,
          "internalType": "address",
          "name": "operator",
          "type": "address"
        },
        {
          "indexed": false,
          "internalType": "string",
          "name": "reason",
          "type": "string"
        },
        {
          "indexed": false,
          "internalType": "uint256",
          "name": "timestamp",
          "type": "uint256"
        }
      ],
      "name": "Emergency",
      "type": "event"
    },
    {
      "anonymous": false,
      "inputs": [
        {
          "indexed": true,
          "internalType": "address",
          "name": "marketplace",
          "type": "address"
        },
        {
          "indexed": false,
          "internalType": "bool",
          "name": "allowed",
          "type": "bool"
        }
      ],
      "name": "MarketplaceAllowlistChanged",
      "type": "event"
    },
    {
      "anonymous": false,
      "inputs": [
        {
          "indexed": true,
          "internalType": "address",
          "name": "to",
          "type": "address"
        },
        {
          "indexed": true,
          "internalType": "uint256",
          "name": "tokenId",
          "type": "uint256"
        },
        {
          "indexed": true,
          "internalType": "uint256",
          "name": "waveNum",
          "type": "uint256"
        },
        {
          "indexed": false,
          "internalType": "uint256",
          "name": "timestamp",
          "type": "uint256"
        }
      ],
      "name": "Minted",
      "type": "event"
    },
    {
      "anonymous": false,
      "inputs": [
        {
          "indexed": true,
          "internalType": "address",
          "name": "previousOwner",
          "type": "address"
        },
        {
          "indexed": true,
          "internalType": "address",
          "name": "newOwner",
          "type": "address"
        }
      ],
      "name": "OwnershipTransferred",
      "type": "event"
    },
    {
      "anonymous": false,
      "inputs": [
        {
          "indexed": false,
          "internalType": "address",
          "name": "account",
          "type": "address"
        }
      ],
      "name": "Paused",
      "type": "event"
    },
    {
      "anonymous": false,
      "inputs": [
        {
          "indexed": false,
          "internalType": "enum BearthNFT.Phase",
          "name": "newPhase",
          "type": "uint8"
        },
        {
          "indexed": true,
          "internalType": "address",
          "name": "caller",
          "type": "address"
        },
        {
          "indexed": false,
          "internalType": "uint256",
          "name": "timestamp",
          "type": "uint256"
        }
      ],
      "name": "PhaseChanged",
      "type": "event"
    },
    {
      "anonymous": false,
      "inputs": [
        {
          "indexed": false,
          "internalType": "bytes32",
          "name": "hash",
          "type": "bytes32"
        }
      ],
      "name": "ProvenanceSet",
      "type": "event"
    },
    {
      "anonymous": false,
      "inputs": [
        {
          "indexed": false,
          "internalType": "bool",
          "name": "enabled",
          "type": "bool"
        },
        {
          "indexed": false,
          "internalType": "uint256",
          "name": "maxPerWallet",
          "type": "uint256"
        }
      ],
      "name": "PurchaseLimitChanged",
      "type": "event"
    },
    {
      "anonymous": false,
      "inputs": [
        {
          "indexed": false,
          "internalType": "string",
          "name": "uri",
          "type": "string"
        },
        {
          "indexed": false,
          "internalType": "uint256",
          "name": "timestamp",
          "type": "uint256"
        }
      ],
      "name": "Revealed",
      "type": "event"
    },
    {
      "anonymous": false,
      "inputs": [
        {
          "indexed": true,
          "internalType": "bytes32",
          "name": "role",
          "type": "bytes32"
        },
        {
          "indexed": true,
          "internalType": "bytes32",
          "name": "previousAdminRole",
          "type": "bytes32"
        },
        {
          "indexed": true,
          "internalType": "bytes32",
          "name": "newAdminRole",
          "type": "bytes32"
        }
      ],
      "name": "RoleAdminChanged",
      "type": "event"
    },
    {
      "anonymous": false,
      "inputs": [
        {
          "indexed": true,
          "internalType": "bytes32",
          "name": "role",
          "type": "bytes32"
        },
        {
          "indexed": true,
          "internalType": "address",
          "name": "account",
          "type": "address"
        },
        {
          "indexed": true,
          "internalType": "address",
          "name": "sender",
          "type": "address"
        }
      ],
      "name": "RoleGranted",
      "type": "event"
    },
    {
      "anonymous": false,
      "inputs": [
        {
          "indexed": true,
          "internalType": "bytes32",
          "name": "role",
          "type": "bytes32"
        },
        {
          "indexed": true,
          "internalType": "address",
          "name": "account",
          "type": "address"
        },
        {
          "indexed": true,
          "internalType": "address",
          "name": "sender",
          "type": "address"
        }
      ],
      "name": "RoleRevoked",
      "type": "event"
    },
    {
      "anonymous": false,
      "inputs": [
        {
          "indexed": false,
          "internalType": "bool",
          "name": "enforced",
          "type": "bool"
        }
      ],
      "name": "RoyaltyEnforcementChanged",
      "type": "event"
    },
    {
      "anonymous": false,
      "inputs": [
        {
          "indexed": true,
          "internalType": "address",
          "name": "receiver",
          "type": "address"
        },
        {
          "indexed": false,
          "internalType": "uint96",
          "name": "feeBasisPoints",
          "type": "uint96"
        }
      ],
      "name": "RoyaltyUpdated",
      "type": "event"
    },
    {
      "anonymous": false,
      "inputs": [
        {
          "indexed": false,
          "internalType": "bool",
          "name": "enabled",
          "type": "bool"
        }
      ],
      "name": "SBTChanged",
      "type": "event"
    },
    {
      "anonymous": false,
      "inputs": [
        {
          "indexed": true,
          "internalType": "address",
          "name": "from",
          "type": "address"
        },
        {
          "indexed": true,
          "internalType": "address",
          "name": "to",
          "type": "address"
        },
        {
          "indexed": true,
          "internalType": "uint256",
          "name": "tokenId",
          "type": "uint256"
        }
      ],
      "name": "Transfer",
      "type": "event"
    },
    {
      "anonymous": false,
      "inputs": [
        {
          "indexed": true,
          "internalType": "address",
          "name": "wallet",
          "type": "address"
        }
      ],
      "name": "TreasuryWalletChanged",
      "type": "event"
    },
    {
      "anonymous": false,
      "inputs": [
        {
          "indexed": false,
          "internalType": "address",
          "name": "account",
          "type": "address"
        }
      ],
      "name": "Unpaused",
      "type": "event"
    },
    {
      "anonymous": false,
      "inputs": [
        {
          "indexed": true,
          "internalType": "address",
          "name": "wallet",
          "type": "address"
        },
        {
          "indexed": false,
          "internalType": "bool",
          "name": "status",
          "type": "bool"
        }
      ],
      "name": "VIPStatusChanged",
      "type": "event"
    },
    {
      "anonymous": false,
      "inputs": [
        {
          "indexed": true,
          "internalType": "uint256",
          "name": "waveNum",
          "type": "uint256"
        },
        {
          "indexed": false,
          "internalType": "uint256",
          "name": "skippedQty",
          "type": "uint256"
        }
      ],
      "name": "WaveClosedBurn",
      "type": "event"
    },
    {
      "anonymous": false,
      "inputs": [
        {
          "indexed": true,
          "internalType": "uint256",
          "name": "waveNum",
          "type": "uint256"
        },
        {
          "indexed": false,
          "internalType": "uint256",
          "name": "qty",
          "type": "uint256"
        },
        {
          "indexed": false,
          "internalType": "address",
          "name": "treasury",
          "type": "address"
        }
      ],
      "name": "WaveClosedTreasury",
      "type": "event"
    },
    {
      "anonymous": false,
      "inputs": [
        {
          "indexed": true,
          "internalType": "uint256",
          "name": "waveNum",
          "type": "uint256"
        },
        {
          "indexed": false,
          "internalType": "uint256",
          "name": "newPrice",
          "type": "uint256"
        }
      ],
      "name": "WavePriceUpdated",
      "type": "event"
    },
    {
      "anonymous": false,
      "inputs": [
        {
          "indexed": true,
          "internalType": "uint256",
          "name": "waveNum",
          "type": "uint256"
        },
        {
          "indexed": false,
          "internalType": "string",
          "name": "uri",
          "type": "string"
        },
        {
          "indexed": false,
          "internalType": "uint256",
          "name": "timestamp",
          "type": "uint256"
        }
      ],
      "name": "WaveRevealed",
      "type": "event"
    },
    {
      "anonymous": false,
      "inputs": [
        {
          "indexed": true,
          "internalType": "uint256",
          "name": "waveNum",
          "type": "uint256"
        },
        {
          "indexed": false,
          "internalType": "uint256",
          "name": "startTime",
          "type": "uint256"
        },
        {
          "indexed": false,
          "internalType": "uint256",
          "name": "endTime",
          "type": "uint256"
        }
      ],
      "name": "WaveScheduleUpdated",
      "type": "event"
    },
    {
      "anonymous": false,
      "inputs": [
        {
          "indexed": true,
          "internalType": "uint256",
          "name": "waveNum",
          "type": "uint256"
        },
        {
          "indexed": true,
          "internalType": "address",
          "name": "buyer",
          "type": "address"
        },
        {
          "indexed": false,
          "internalType": "uint256",
          "name": "qty",
          "type": "uint256"
        }
      ],
      "name": "WaveSold",
      "type": "event"
    },
    {
      "inputs": [],
      "name": "ACCOUNT_PAUSER_ROLE",
      "outputs": [
        {
          "internalType": "bytes32",
          "name": "",
          "type": "bytes32"
        }
      ],
      "stateMutability": "view",
      "type": "function"
    },
    {
      "inputs": [],
      "name": "DEFAULT_ADMIN_ROLE",
      "outputs": [
        {
          "internalType": "bytes32",
          "name": "",
          "type": "bytes32"
        }
      ],
      "stateMutability": "view",
      "type": "function"
    },
    {
      "inputs": [],
      "name": "EMERGENCY_ROLE",
      "outputs": [
        {
          "internalType": "bytes32",
          "name": "",
          "type": "bytes32"
        }
      ],
      "stateMutability": "view",
      "type": "function"
    },
    {
      "inputs": [],
      "name": "MAX_SUPPLY",
      "outputs": [
        {
          "internalType": "uint256",
          "name": "",
          "type": "uint256"
        }
      ],
      "stateMutability": "view",
      "type": "function"
    },
    {
      "inputs": [],
      "name": "OPENSEA_SEAPORT",
      "outputs": [
        {
          "internalType": "address",
          "name": "",
          "type": "address"
        }
      ],
      "stateMutability": "view",
      "type": "function"
    },
    {
      "inputs": [],
      "name": "PAUSER_ROLE",
      "outputs": [
        {
          "internalType": "bytes32",
          "name": "",
          "type": "bytes32"
        }
      ],
      "stateMutability": "view",
      "type": "function"
    },
    {
      "inputs": [],
      "name": "REVEAL_ROLE",
      "outputs": [
        {
          "internalType": "bytes32",
          "name": "",
          "type": "bytes32"
        }
      ],
      "stateMutability": "view",
      "type": "function"
    },
    {
      "inputs": [],
      "name": "ROYALTY_ROLE",
      "outputs": [
        {
          "internalType": "bytes32",
          "name": "",
          "type": "bytes32"
        }
      ],
      "stateMutability": "view",
      "type": "function"
    },
    {
      "inputs": [],
      "name": "WAVE_COUNT",
      "outputs": [
        {
          "internalType": "uint256",
          "name": "",
          "type": "uint256"
        }
      ],
      "stateMutability": "view",
      "type": "function"
    },
    {
      "inputs": [],
      "name": "WAVE_ROLE",
      "outputs": [
        {
          "internalType": "bytes32",
          "name": "",
          "type": "bytes32"
        }
      ],
      "stateMutability": "view",
      "type": "function"
    },
    {
      "inputs": [],
      "name": "WITHDRAWER_ROLE",
      "outputs": [
        {
          "internalType": "bytes32",
          "name": "",
          "type": "bytes32"
        }
      ],
      "stateMutability": "view",
      "type": "function"
    },
    {
      "inputs": [],
      "name": "WL_ROLE",
      "outputs": [
        {
          "internalType": "bytes32",
          "name": "",
          "type": "bytes32"
        }
      ],
      "stateMutability": "view",
      "type": "function"
    },
    {
      "inputs": [
        {
          "internalType": "address",
          "name": "to",
          "type": "address"
        },
        {
          "internalType": "uint256",
          "name": "qty",
          "type": "uint256"
        }
      ],
      "name": "adminMint",
      "outputs": [],
      "stateMutability": "nonpayable",
      "type": "function"
    },
    {
      "inputs": [
        {
          "internalType": "address",
          "name": "",
          "type": "address"
        }
      ],
      "name": "allowedMarketplaces",
      "outputs": [
        {
          "internalType": "bool",
          "name": "",
          "type": "bool"
        }
      ],
      "stateMutability": "view",
      "type": "function"
    },
    {
      "inputs": [
        {
          "internalType": "address",
          "name": "to",
          "type": "address"
        },
        {
          "internalType": "uint256",
          "name": "id",
          "type": "uint256"
        }
      ],
      "name": "approve",
      "outputs": [],
      "stateMutability": "payable",
      "type": "function"
    },
    {
      "inputs": [
        {
          "internalType": "address",
          "name": "owner",
          "type": "address"
        }
      ],
      "name": "balanceOf",
      "outputs": [
        {
          "internalType": "uint256",
          "name": "",
          "type": "uint256"
        }
      ],
      "stateMutability": "view",
      "type": "function"
    },
    {
      "inputs": [
        {
          "internalType": "uint256[]",
          "name": "ids",
          "type": "uint256[]"
        }
      ],
      "name": "batchBurn",
      "outputs": [],
      "stateMutability": "nonpayable",
      "type": "function"
    },
    {
      "inputs": [
        {
          "internalType": "uint256",
          "name": "id",
          "type": "uint256"
        }
      ],
      "name": "burn",
      "outputs": [],
      "stateMutability": "nonpayable",
      "type": "function"
    },
    {
      "inputs": [
        {
          "internalType": "uint256",
          "name": "waveNum",
          "type": "uint256"
        }
      ],
      "name": "burnUnsold",
      "outputs": [],
      "stateMutability": "nonpayable",
      "type": "function"
    },
    {
      "inputs": [],
      "name": "contractURI",
      "outputs": [
        {
          "internalType": "string",
          "name": "",
          "type": "string"
        }
      ],
      "stateMutability": "view",
      "type": "function"
    },
    {
      "inputs": [],
      "name": "currentPhase",
      "outputs": [
        {
          "internalType": "enum BearthNFT.Phase",
          "name": "",
          "type": "uint8"
        }
      ],
      "stateMutability": "view",
      "type": "function"
    },
    {
      "inputs": [
        {
          "internalType": "uint256",
          "name": "",
          "type": "uint256"
        }
      ],
      "name": "dutchConfig",
      "outputs": [
        {
          "internalType": "uint256",
          "name": "startPrice",
          "type": "uint256"
        },
        {
          "internalType": "uint256",
          "name": "floorPrice",
          "type": "uint256"
        },
        {
          "internalType": "uint256",
          "name": "decrementWei",
          "type": "uint256"
        },
        {
          "internalType": "uint256",
          "name": "intervalSecs",
          "type": "uint256"
        },
        {
          "internalType": "uint256",
          "name": "auctionStart",
          "type": "uint256"
        }
      ],
      "stateMutability": "view",
      "type": "function"
    },
    {
      "inputs": [
        {
          "internalType": "uint256",
          "name": "waveNum",
          "type": "uint256"
        },
        {
          "internalType": "uint256",
          "name": "qty",
          "type": "uint256"
        }
      ],
      "name": "dutchMint",
      "outputs": [],
      "stateMutability": "payable",
      "type": "function"
    },
    {
      "inputs": [
        {
          "internalType": "uint256",
          "name": "id",
          "type": "uint256"
        },
        {
          "internalType": "address",
          "name": "from",
          "type": "address"
        },
        {
          "internalType": "address",
          "name": "to",
          "type": "address"
        },
        {
          "internalType": "string",
          "name": "reason",
          "type": "string"
        }
      ],
      "name": "emergencyTransfer",
      "outputs": [],
      "stateMutability": "nonpayable",
      "type": "function"
    },
    {
      "inputs": [
        {
          "internalType": "uint256",
          "name": "tokenId",
          "type": "uint256"
        }
      ],
      "name": "explicitOwnershipOf",
      "outputs": [
        {
          "components": [
            {
              "internalType": "address",
              "name": "addr",
              "type": "address"
            },
            {
              "internalType": "uint64",
              "name": "startTimestamp",
              "type": "uint64"
            },
            {
              "internalType": "bool",
              "name": "burned",
              "type": "bool"
            },
            {
              "internalType": "uint24",
              "name": "extraData",
              "type": "uint24"
            }
          ],
          "internalType": "struct IERC721A.TokenOwnership",
          "name": "ownership",
          "type": "tuple"
        }
      ],
      "stateMutability": "view",
      "type": "function"
    },
    {
      "inputs": [
        {
          "internalType": "uint256[]",
          "name": "tokenIds",
          "type": "uint256[]"
        }
      ],
      "name": "explicitOwnershipsOf",
      "outputs": [
        {
          "components": [
            {
              "internalType": "address",
              "name": "addr",
              "type": "address"
            },
            {
              "internalType": "uint64",
              "name": "startTimestamp",
              "type": "uint64"
            },
            {
              "internalType": "bool",
              "name": "burned",
              "type": "bool"
            },
            {
              "internalType": "uint24",
              "name": "extraData",
              "type": "uint24"
            }
          ],
          "internalType": "struct IERC721A.TokenOwnership[]",
          "name": "",
          "type": "tuple[]"
        }
      ],
      "stateMutability": "view",
      "type": "function"
    },
    {
      "inputs": [
        {
          "internalType": "uint256",
          "name": "tokenId",
          "type": "uint256"
        }
      ],
      "name": "getApproved",
      "outputs": [
        {
          "internalType": "address",
          "name": "",
          "type": "address"
        }
      ],
      "stateMutability": "view",
      "type": "function"
    },
    {
      "inputs": [],
      "name": "getCollectionInfo",
      "outputs": [
        {
          "internalType": "enum BearthNFT.Phase",
          "name": "phase_",
          "type": "uint8"
        },
        {
          "internalType": "uint256",
          "name": "totalMinted_",
          "type": "uint256"
        },
        {
          "internalType": "uint256",
          "name": "maxSupply_",
          "type": "uint256"
        },
        {
          "internalType": "bool",
          "name": "sbt_",
          "type": "bool"
        },
        {
          "internalType": "uint256",
          "name": "revealCount_",
          "type": "uint256"
        },
        {
          "internalType": "bool",
          "name": "royaltyEnforced_",
          "type": "bool"
        },
        {
          "internalType": "bool",
          "name": "purchaseLimitEnabled_",
          "type": "bool"
        },
        {
          "internalType": "uint256",
          "name": "normalMaxPerWallet_",
          "type": "uint256"
        }
      ],
      "stateMutability": "view",
      "type": "function"
    },
    {
      "inputs": [
        {
          "internalType": "uint256",
          "name": "waveNum",
          "type": "uint256"
        }
      ],
      "name": "getCurrentDutchPrice",
      "outputs": [
        {
          "internalType": "uint256",
          "name": "",
          "type": "uint256"
        }
      ],
      "stateMutability": "view",
      "type": "function"
    },
    {
      "inputs": [
        {
          "internalType": "bytes32",
          "name": "role",
          "type": "bytes32"
        }
      ],
      "name": "getRoleAdmin",
      "outputs": [
        {
          "internalType": "bytes32",
          "name": "",
          "type": "bytes32"
        }
      ],
      "stateMutability": "view",
      "type": "function"
    },
    {
      "inputs": [
        {
          "internalType": "uint256",
          "name": "tokenId",
          "type": "uint256"
        }
      ],
      "name": "getSeries",
      "outputs": [
        {
          "internalType": "uint256",
          "name": "",
          "type": "uint256"
        }
      ],
      "stateMutability": "view",
      "type": "function"
    },
    {
      "inputs": [
        {
          "internalType": "address",
          "name": "wallet",
          "type": "address"
        }
      ],
      "name": "getWalletInfo",
      "outputs": [
        {
          "internalType": "uint256",
          "name": "totalMinted_",
          "type": "uint256"
        },
        {
          "internalType": "bool",
          "name": "isVIP_",
          "type": "bool"
        },
        {
          "internalType": "bool",
          "name": "wlClaimed_",
          "type": "bool"
        }
      ],
      "stateMutability": "view",
      "type": "function"
    },
    {
      "inputs": [
        {
          "internalType": "uint256",
          "name": "waveNum",
          "type": "uint256"
        }
      ],
      "name": "getWaveInfo",
      "outputs": [
        {
          "internalType": "uint256",
          "name": "price",
          "type": "uint256"
        },
        {
          "internalType": "uint256",
          "name": "qty",
          "type": "uint256"
        },
        {
          "internalType": "uint256",
          "name": "sold",
          "type": "uint256"
        },
        {
          "internalType": "uint256",
          "name": "startTime",
          "type": "uint256"
        },
        {
          "internalType": "uint256",
          "name": "endTime",
          "type": "uint256"
        },
        {
          "internalType": "bool",
          "name": "closed",
          "type": "bool"
        },
        {
          "internalType": "bool",
          "name": "active",
          "type": "bool"
        },
        {
          "internalType": "bool",
          "name": "revealed",
          "type": "bool"
        }
      ],
      "stateMutability": "view",
      "type": "function"
    },
    {
      "inputs": [
        {
          "internalType": "bytes32",
          "name": "role",
          "type": "bytes32"
        },
        {
          "internalType": "address",
          "name": "account",
          "type": "address"
        }
      ],
      "name": "grantRole",
      "outputs": [],
      "stateMutability": "nonpayable",
      "type": "function"
    },
    {
      "inputs": [
        {
          "internalType": "bytes32",
          "name": "role",
          "type": "bytes32"
        },
        {
          "internalType": "address",
          "name": "account",
          "type": "address"
        }
      ],
      "name": "hasRole",
      "outputs": [
        {
          "internalType": "bool",
          "name": "",
          "type": "bool"
        }
      ],
      "stateMutability": "view",
      "type": "function"
    },
    {
      "inputs": [
        {
          "internalType": "address",
          "name": "owner",
          "type": "address"
        },
        {
          "internalType": "address",
          "name": "operator",
          "type": "address"
        }
      ],
      "name": "isApprovedForAll",
      "outputs": [
        {
          "internalType": "bool",
          "name": "",
          "type": "bool"
        }
      ],
      "stateMutability": "view",
      "type": "function"
    },
    {
      "inputs": [
        {
          "internalType": "uint256",
          "name": "",
          "type": "uint256"
        }
      ],
      "name": "isDutchWave",
      "outputs": [
        {
          "internalType": "bool",
          "name": "",
          "type": "bool"
        }
      ],
      "stateMutability": "view",
      "type": "function"
    },
    {
      "inputs": [
        {
          "internalType": "uint256",
          "name": "tokenId",
          "type": "uint256"
        }
      ],
      "name": "isGenesis",
      "outputs": [
        {
          "internalType": "bool",
          "name": "",
          "type": "bool"
        }
      ],
      "stateMutability": "view",
      "type": "function"
    },
    {
      "inputs": [
        {
          "internalType": "address",
          "name": "",
          "type": "address"
        }
      ],
      "name": "isVIP",
      "outputs": [
        {
          "internalType": "bool",
          "name": "",
          "type": "bool"
        }
      ],
      "stateMutability": "view",
      "type": "function"
    },
    {
      "inputs": [
        {
          "internalType": "address",
          "name": "addr",
          "type": "address"
        },
        {
          "internalType": "bytes32[]",
          "name": "proof",
          "type": "bytes32[]"
        }
      ],
      "name": "isWhitelisted",
      "outputs": [
        {
          "internalType": "bool",
          "name": "",
          "type": "bool"
        }
      ],
      "stateMutability": "view",
      "type": "function"
    },
    {
      "inputs": [],
      "name": "merkleRoot",
      "outputs": [
        {
          "internalType": "bytes32",
          "name": "",
          "type": "bytes32"
        }
      ],
      "stateMutability": "view",
      "type": "function"
    },
    {
      "inputs": [
        {
          "internalType": "address",
          "name": "to",
          "type": "address"
        },
        {
          "internalType": "uint256",
          "name": "waveNum",
          "type": "uint256"
        },
        {
          "internalType": "uint256",
          "name": "qty",
          "type": "uint256"
        }
      ],
      "name": "mintAndTransfer",
      "outputs": [],
      "stateMutability": "nonpayable",
      "type": "function"
    },
    {
      "inputs": [
        {
          "internalType": "uint256",
          "name": "waveNum",
          "type": "uint256"
        }
      ],
      "name": "mintToTreasury",
      "outputs": [],
      "stateMutability": "nonpayable",
      "type": "function"
    },
    {
      "inputs": [],
      "name": "name",
      "outputs": [
        {
          "internalType": "string",
          "name": "",
          "type": "string"
        }
      ],
      "stateMutability": "view",
      "type": "function"
    },
    {
      "inputs": [],
      "name": "normalMaxPerWallet",
      "outputs": [
        {
          "internalType": "uint256",
          "name": "",
          "type": "uint256"
        }
      ],
      "stateMutability": "view",
      "type": "function"
    },
    {
      "inputs": [],
      "name": "owner",
      "outputs": [
        {
          "internalType": "address",
          "name": "",
          "type": "address"
        }
      ],
      "stateMutability": "view",
      "type": "function"
    },
    {
      "inputs": [
        {
          "internalType": "uint256",
          "name": "tokenId",
          "type": "uint256"
        }
      ],
      "name": "ownerOf",
      "outputs": [
        {
          "internalType": "address",
          "name": "",
          "type": "address"
        }
      ],
      "stateMutability": "view",
      "type": "function"
    },
    {
      "inputs": [
        {
          "internalType": "uint256",
          "name": "qty",
          "type": "uint256"
        }
      ],
      "name": "paidMint",
      "outputs": [],
      "stateMutability": "payable",
      "type": "function"
    },
    {
      "inputs": [],
      "name": "pause",
      "outputs": [],
      "stateMutability": "nonpayable",
      "type": "function"
    },
    {
      "inputs": [
        {
          "internalType": "address",
          "name": "account",
          "type": "address"
        }
      ],
      "name": "pauseAccount",
      "outputs": [],
      "stateMutability": "nonpayable",
      "type": "function"
    },
    {
      "inputs": [],
      "name": "paused",
      "outputs": [
        {
          "internalType": "bool",
          "name": "",
          "type": "bool"
        }
      ],
      "stateMutability": "view",
      "type": "function"
    },
    {
      "inputs": [
        {
          "internalType": "address",
          "name": "",
          "type": "address"
        }
      ],
      "name": "pausedAccounts",
      "outputs": [
        {
          "internalType": "bool",
          "name": "",
          "type": "bool"
        }
      ],
      "stateMutability": "view",
      "type": "function"
    },
    {
      "inputs": [],
      "name": "provenanceHash",
      "outputs": [
        {
          "internalType": "bytes32",
          "name": "",
          "type": "bytes32"
        }
      ],
      "stateMutability": "view",
      "type": "function"
    },
    {
      "inputs": [],
      "name": "purchaseLimitEnabled",
      "outputs": [
        {
          "internalType": "bool",
          "name": "",
          "type": "bool"
        }
      ],
      "stateMutability": "view",
      "type": "function"
    },
    {
      "inputs": [],
      "name": "renounceOwnership",
      "outputs": [],
      "stateMutability": "nonpayable",
      "type": "function"
    },
    {
      "inputs": [
        {
          "internalType": "bytes32",
          "name": "role",
          "type": "bytes32"
        },
        {
          "internalType": "address",
          "name": "callerConfirmation",
          "type": "address"
        }
      ],
      "name": "renounceRole",
      "outputs": [],
      "stateMutability": "nonpayable",
      "type": "function"
    },
    {
      "inputs": [
        {
          "internalType": "string",
          "name": "uri",
          "type": "string"
        }
      ],
      "name": "reveal",
      "outputs": [],
      "stateMutability": "nonpayable",
      "type": "function"
    },
    {
      "inputs": [],
      "name": "revealCount",
      "outputs": [
        {
          "internalType": "uint256",
          "name": "",
          "type": "uint256"
        }
      ],
      "stateMutability": "view",
      "type": "function"
    },
    {
      "inputs": [
        {
          "internalType": "uint256",
          "name": "waveNum",
          "type": "uint256"
        },
        {
          "internalType": "string",
          "name": "uri",
          "type": "string"
        }
      ],
      "name": "revealWave",
      "outputs": [],
      "stateMutability": "nonpayable",
      "type": "function"
    },
    {
      "inputs": [
        {
          "internalType": "bytes32",
          "name": "role",
          "type": "bytes32"
        },
        {
          "internalType": "address",
          "name": "account",
          "type": "address"
        }
      ],
      "name": "revokeRole",
      "outputs": [],
      "stateMutability": "nonpayable",
      "type": "function"
    },
    {
      "inputs": [],
      "name": "royaltyEnforced",
      "outputs": [
        {
          "internalType": "bool",
          "name": "",
          "type": "bool"
        }
      ],
      "stateMutability": "view",
      "type": "function"
    },
    {
      "inputs": [
        {
          "internalType": "uint256",
          "name": "tokenId",
          "type": "uint256"
        },
        {
          "internalType": "uint256",
          "name": "salePrice",
          "type": "uint256"
        }
      ],
      "name": "royaltyInfo",
      "outputs": [
        {
          "internalType": "address",
          "name": "receiver",
          "type": "address"
        },
        {
          "internalType": "uint256",
          "name": "amount",
          "type": "uint256"
        }
      ],
      "stateMutability": "view",
      "type": "function"
    },
    {
      "inputs": [
        {
          "internalType": "address",
          "name": "from",
          "type": "address"
        },
        {
          "internalType": "address",
          "name": "to",
          "type": "address"
        },
        {
          "internalType": "uint256",
          "name": "tokenId",
          "type": "uint256"
        }
      ],
      "name": "safeTransferFrom",
      "outputs": [],
      "stateMutability": "payable",
      "type": "function"
    },
    {
      "inputs": [
        {
          "internalType": "address",
          "name": "from",
          "type": "address"
        },
        {
          "internalType": "address",
          "name": "to",
          "type": "address"
        },
        {
          "internalType": "uint256",
          "name": "tokenId",
          "type": "uint256"
        },
        {
          "internalType": "bytes",
          "name": "data",
          "type": "bytes"
        }
      ],
      "name": "safeTransferFrom",
      "outputs": [],
      "stateMutability": "payable",
      "type": "function"
    },
    {
      "inputs": [],
      "name": "sbt",
      "outputs": [
        {
          "internalType": "bool",
          "name": "",
          "type": "bool"
        }
      ],
      "stateMutability": "view",
      "type": "function"
    },
    {
      "inputs": [
        {
          "internalType": "address",
          "name": "marketplace",
          "type": "address"
        },
        {
          "internalType": "bool",
          "name": "allowed",
          "type": "bool"
        }
      ],
      "name": "setAllowedMarketplace",
      "outputs": [],
      "stateMutability": "nonpayable",
      "type": "function"
    },
    {
      "inputs": [
        {
          "internalType": "address",
          "name": "op",
          "type": "address"
        },
        {
          "internalType": "bool",
          "name": "approved",
          "type": "bool"
        }
      ],
      "name": "setApprovalForAll",
      "outputs": [],
      "stateMutability": "nonpayable",
      "type": "function"
    },
    {
      "inputs": [
        {
          "internalType": "string",
          "name": "uri",
          "type": "string"
        }
      ],
      "name": "setContractURI",
      "outputs": [],
      "stateMutability": "nonpayable",
      "type": "function"
    },
    {
      "inputs": [
        {
          "internalType": "uint256",
          "name": "waveNum",
          "type": "uint256"
        },
        {
          "internalType": "uint256",
          "name": "startPrice",
          "type": "uint256"
        },
        {
          "internalType": "uint256",
          "name": "floorPrice",
          "type": "uint256"
        },
        {
          "internalType": "uint256",
          "name": "decrementWei",
          "type": "uint256"
        },
        {
          "internalType": "uint256",
          "name": "intervalSecs",
          "type": "uint256"
        }
      ],
      "name": "setDutchAuction",
      "outputs": [],
      "stateMutability": "nonpayable",
      "type": "function"
    },
    {
      "inputs": [
        {
          "internalType": "bytes32",
          "name": "root",
          "type": "bytes32"
        }
      ],
      "name": "setMerkleRoot",
      "outputs": [],
      "stateMutability": "nonpayable",
      "type": "function"
    },
    {
      "inputs": [
        {
          "internalType": "enum BearthNFT.Phase",
          "name": "p",
          "type": "uint8"
        }
      ],
      "name": "setPhase",
      "outputs": [],
      "stateMutability": "nonpayable",
      "type": "function"
    },
    {
      "inputs": [
        {
          "internalType": "bytes32",
          "name": "hash",
          "type": "bytes32"
        }
      ],
      "name": "setProvenanceHash",
      "outputs": [],
      "stateMutability": "nonpayable",
      "type": "function"
    },
    {
      "inputs": [
        {
          "internalType": "bool",
          "name": "enabled",
          "type": "bool"
        },
        {
          "internalType": "uint256",
          "name": "maxPerWallet",
          "type": "uint256"
        }
      ],
      "name": "setPurchaseLimitConfig",
      "outputs": [],
      "stateMutability": "nonpayable",
      "type": "function"
    },
    {
      "inputs": [
        {
          "internalType": "address",
          "name": "receiver",
          "type": "address"
        },
        {
          "internalType": "uint96",
          "name": "bps",
          "type": "uint96"
        }
      ],
      "name": "setRoyalty",
      "outputs": [],
      "stateMutability": "nonpayable",
      "type": "function"
    },
    {
      "inputs": [
        {
          "internalType": "bool",
          "name": "enforced",
          "type": "bool"
        }
      ],
      "name": "setRoyaltyEnforced",
      "outputs": [],
      "stateMutability": "nonpayable",
      "type": "function"
    },
    {
      "inputs": [
        {
          "internalType": "bool",
          "name": "enabled",
          "type": "bool"
        }
      ],
      "name": "setSBT",
      "outputs": [],
      "stateMutability": "nonpayable",
      "type": "function"
    },
    {
      "inputs": [
        {
          "internalType": "uint256",
          "name": "tokenId",
          "type": "uint256"
        },
        {
          "internalType": "uint8",
          "name": "rarity",
          "type": "uint8"
        }
      ],
      "name": "setTokenRarity",
      "outputs": [],
      "stateMutability": "nonpayable",
      "type": "function"
    },
    {
      "inputs": [
        {
          "internalType": "uint256[]",
          "name": "tokenIds",
          "type": "uint256[]"
        },
        {
          "internalType": "uint8[]",
          "name": "rarities",
          "type": "uint8[]"
        }
      ],
      "name": "setTokenRarityBatch",
      "outputs": [],
      "stateMutability": "nonpayable",
      "type": "function"
    },
    {
      "inputs": [
        {
          "internalType": "uint256",
          "name": "tokenId",
          "type": "uint256"
        },
        {
          "internalType": "uint256",
          "name": "priceWei",
          "type": "uint256"
        }
      ],
      "name": "setTokenRarityPrice",
      "outputs": [],
      "stateMutability": "nonpayable",
      "type": "function"
    },
    {
      "inputs": [
        {
          "internalType": "address",
          "name": "wallet",
          "type": "address"
        }
      ],
      "name": "setTreasuryWallet",
      "outputs": [],
      "stateMutability": "nonpayable",
      "type": "function"
    },
    {
      "inputs": [
        {
          "internalType": "address",
          "name": "wallet",
          "type": "address"
        },
        {
          "internalType": "bool",
          "name": "status",
          "type": "bool"
        }
      ],
      "name": "setVIP",
      "outputs": [],
      "stateMutability": "nonpayable",
      "type": "function"
    },
    {
      "inputs": [
        {
          "internalType": "uint256",
          "name": "waveNum",
          "type": "uint256"
        },
        {
          "internalType": "uint256",
          "name": "priceWei",
          "type": "uint256"
        }
      ],
      "name": "setWavePrice",
      "outputs": [],
      "stateMutability": "nonpayable",
      "type": "function"
    },
    {
      "inputs": [
        {
          "internalType": "uint256",
          "name": "waveNum",
          "type": "uint256"
        },
        {
          "internalType": "uint256",
          "name": "startTime",
          "type": "uint256"
        },
        {
          "internalType": "uint256",
          "name": "endTime",
          "type": "uint256"
        }
      ],
      "name": "setWaveSchedule",
      "outputs": [],
      "stateMutability": "nonpayable",
      "type": "function"
    },
    {
      "inputs": [
        {
          "internalType": "bytes4",
          "name": "id",
          "type": "bytes4"
        }
      ],
      "name": "supportsInterface",
      "outputs": [
        {
          "internalType": "bool",
          "name": "",
          "type": "bool"
        }
      ],
      "stateMutability": "view",
      "type": "function"
    },
    {
      "inputs": [],
      "name": "symbol",
      "outputs": [
        {
          "internalType": "string",
          "name": "",
          "type": "string"
        }
      ],
      "stateMutability": "view",
      "type": "function"
    },
    {
      "inputs": [
        {
          "internalType": "address",
          "name": "owner",
          "type": "address"
        },
        {
          "internalType": "uint256",
          "name": "index",
          "type": "uint256"
        }
      ],
      "name": "tokenOfOwnerByIndex",
      "outputs": [
        {
          "internalType": "uint256",
          "name": "",
          "type": "uint256"
        }
      ],
      "stateMutability": "view",
      "type": "function"
    },
    {
      "inputs": [
        {
          "internalType": "uint256",
          "name": "",
          "type": "uint256"
        }
      ],
      "name": "tokenRarity",
      "outputs": [
        {
          "internalType": "uint8",
          "name": "",
          "type": "uint8"
        }
      ],
      "stateMutability": "view",
      "type": "function"
    },
    {
      "inputs": [
        {
          "internalType": "uint256",
          "name": "",
          "type": "uint256"
        }
      ],
      "name": "tokenRarityPrice",
      "outputs": [
        {
          "internalType": "uint256",
          "name": "",
          "type": "uint256"
        }
      ],
      "stateMutability": "view",
      "type": "function"
    },
    {
      "inputs": [
        {
          "internalType": "uint256",
          "name": "id",
          "type": "uint256"
        }
      ],
      "name": "tokenURI",
      "outputs": [
        {
          "internalType": "string",
          "name": "",
          "type": "string"
        }
      ],
      "stateMutability": "view",
      "type": "function"
    },
    {
      "inputs": [
        {
          "internalType": "uint256",
          "name": "",
          "type": "uint256"
        }
      ],
      "name": "tokenWave",
      "outputs": [
        {
          "internalType": "uint256",
          "name": "",
          "type": "uint256"
        }
      ],
      "stateMutability": "view",
      "type": "function"
    },
    {
      "inputs": [
        {
          "internalType": "address",
          "name": "owner",
          "type": "address"
        }
      ],
      "name": "tokensOfOwner",
      "outputs": [
        {
          "internalType": "uint256[]",
          "name": "",
          "type": "uint256[]"
        }
      ],
      "stateMutability": "view",
      "type": "function"
    },
    {
      "inputs": [
        {
          "internalType": "address",
          "name": "owner",
          "type": "address"
        },
        {
          "internalType": "uint256",
          "name": "start",
          "type": "uint256"
        },
        {
          "internalType": "uint256",
          "name": "stop",
          "type": "uint256"
        }
      ],
      "name": "tokensOfOwnerIn",
      "outputs": [
        {
          "internalType": "uint256[]",
          "name": "",
          "type": "uint256[]"
        }
      ],
      "stateMutability": "view",
      "type": "function"
    },
    {
      "inputs": [],
      "name": "totalSupply",
      "outputs": [
        {
          "internalType": "uint256",
          "name": "result",
          "type": "uint256"
        }
      ],
      "stateMutability": "view",
      "type": "function"
    },
    {
      "inputs": [
        {
          "internalType": "address",
          "name": "from",
          "type": "address"
        },
        {
          "internalType": "address",
          "name": "to",
          "type": "address"
        },
        {
          "internalType": "uint256",
          "name": "tokenId",
          "type": "uint256"
        }
      ],
      "name": "transferFrom",
      "outputs": [],
      "stateMutability": "payable",
      "type": "function"
    },
    {
      "inputs": [
        {
          "internalType": "address",
          "name": "newOwner",
          "type": "address"
        }
      ],
      "name": "transferOwnership",
      "outputs": [],
      "stateMutability": "nonpayable",
      "type": "function"
    },
    {
      "inputs": [],
      "name": "treasuryWallet",
      "outputs": [
        {
          "internalType": "address",
          "name": "",
          "type": "address"
        }
      ],
      "stateMutability": "view",
      "type": "function"
    },
    {
      "inputs": [],
      "name": "unpause",
      "outputs": [],
      "stateMutability": "nonpayable",
      "type": "function"
    },
    {
      "inputs": [
        {
          "internalType": "address",
          "name": "account",
          "type": "address"
        }
      ],
      "name": "unpauseAccount",
      "outputs": [],
      "stateMutability": "nonpayable",
      "type": "function"
    },
    {
      "inputs": [
        {
          "internalType": "address",
          "name": "",
          "type": "address"
        }
      ],
      "name": "walletTotalMinted",
      "outputs": [
        {
          "internalType": "uint256",
          "name": "",
          "type": "uint256"
        }
      ],
      "stateMutability": "view",
      "type": "function"
    },
    {
      "inputs": [
        {
          "internalType": "uint256",
          "name": "",
          "type": "uint256"
        }
      ],
      "name": "waveClosed",
      "outputs": [
        {
          "internalType": "bool",
          "name": "",
          "type": "bool"
        }
      ],
      "stateMutability": "view",
      "type": "function"
    },
    {
      "inputs": [
        {
          "internalType": "uint256",
          "name": "",
          "type": "uint256"
        }
      ],
      "name": "waveEndTime",
      "outputs": [
        {
          "internalType": "uint256",
          "name": "",
          "type": "uint256"
        }
      ],
      "stateMutability": "view",
      "type": "function"
    },
    {
      "inputs": [
        {
          "internalType": "uint256",
          "name": "",
          "type": "uint256"
        }
      ],
      "name": "wavePrice",
      "outputs": [
        {
          "internalType": "uint256",
          "name": "",
          "type": "uint256"
        }
      ],
      "stateMutability": "view",
      "type": "function"
    },
    {
      "inputs": [
        {
          "internalType": "uint256",
          "name": "",
          "type": "uint256"
        }
      ],
      "name": "waveQty",
      "outputs": [
        {
          "internalType": "uint256",
          "name": "",
          "type": "uint256"
        }
      ],
      "stateMutability": "view",
      "type": "function"
    },
    {
      "inputs": [
        {
          "internalType": "uint256",
          "name": "",
          "type": "uint256"
        }
      ],
      "name": "waveRevealURI",
      "outputs": [
        {
          "internalType": "string",
          "name": "",
          "type": "string"
        }
      ],
      "stateMutability": "view",
      "type": "function"
    },
    {
      "inputs": [
        {
          "internalType": "uint256",
          "name": "",
          "type": "uint256"
        }
      ],
      "name": "waveRevealed",
      "outputs": [
        {
          "internalType": "bool",
          "name": "",
          "type": "bool"
        }
      ],
      "stateMutability": "view",
      "type": "function"
    },
    {
      "inputs": [
        {
          "internalType": "uint256",
          "name": "",
          "type": "uint256"
        }
      ],
      "name": "waveSoldCount",
      "outputs": [
        {
          "internalType": "uint256",
          "name": "",
          "type": "uint256"
        }
      ],
      "stateMutability": "view",
      "type": "function"
    },
    {
      "inputs": [
        {
          "internalType": "uint256",
          "name": "",
          "type": "uint256"
        }
      ],
      "name": "waveStartTime",
      "outputs": [
        {
          "internalType": "uint256",
          "name": "",
          "type": "uint256"
        }
      ],
      "stateMutability": "view",
      "type": "function"
    },
    {
      "inputs": [
        {
          "internalType": "address payable",
          "name": "to",
          "type": "address"
        }
      ],
      "name": "withdraw",
      "outputs": [],
      "stateMutability": "nonpayable",
      "type": "function"
    },
    {
      "inputs": [
        {
          "internalType": "address",
          "name": "",
          "type": "address"
        }
      ],
      "name": "wlClaimed",
      "outputs": [
        {
          "internalType": "bool",
          "name": "",
          "type": "bool"
        }
      ],
      "stateMutability": "view",
      "type": "function"
    },
    {
      "inputs": [
        {
          "internalType": "bytes32[]",
          "name": "proof",
          "type": "bytes32[]"
        }
      ],
      "name": "wlMint",
      "outputs": [],
      "stateMutability": "nonpayable",
      "type": "function"
    },
    {
      "inputs": [
        {
          "internalType": "uint256",
          "name": "waveNum",
          "type": "uint256"
        },
        {
          "internalType": "bytes32",
          "name": "root",
          "type": "bytes32"
        }
      ],
      "name": "setWaveMerkleRoot",
      "outputs": [],
      "stateMutability": "nonpayable",
      "type": "function"
    },
    {
      "inputs": [
        {
          "internalType": "uint256[]",
          "name": "burnIds",
          "type": "uint256[]"
        },
        {
          "internalType": "address",
          "name": "to",
          "type": "address"
        }
      ],
      "name": "burnAndUpgrade",
      "outputs": [],
      "stateMutability": "nonpayable",
      "type": "function"
    },
    {
      "inputs": [
        {
          "internalType": "address",
          "name": "to",
          "type": "address"
        },
        {
          "internalType": "uint8",
          "name": "season",
          "type": "uint8"
        }
      ],
      "name": "mintSeasonPass",
      "outputs": [],
      "stateMutability": "nonpayable",
      "type": "function"
    },
    {
      "inputs": [
        {
          "internalType": "uint256",
          "name": "",
          "type": "uint256"
        }
      ],
      "name": "waveMerkleRoot",
      "outputs": [
        {
          "internalType": "bytes32",
          "name": "",
          "type": "bytes32"
        }
      ],
      "stateMutability": "view",
      "type": "function"
    },
    {
      "inputs": [
        {
          "internalType": "uint256",
          "name": "",
          "type": "uint256"
        }
      ],
      "name": "isSeasonPass",
      "outputs": [
        {
          "internalType": "bool",
          "name": "",
          "type": "bool"
        }
      ],
      "stateMutability": "view",
      "type": "function"
    },
    {
      "inputs": [
        {
          "internalType": "uint256",
          "name": "",
          "type": "uint256"
        }
      ],
      "name": "seasonPassSeason",
      "outputs": [
        {
          "internalType": "uint8",
          "name": "",
          "type": "uint8"
        }
      ],
      "stateMutability": "view",
      "type": "function"
    },
    {
      "anonymous": false,
      "inputs": [
        {
          "indexed": true,
          "internalType": "uint256",
          "name": "waveNum",
          "type": "uint256"
        },
        {
          "indexed": false,
          "internalType": "bytes32",
          "name": "root",
          "type": "bytes32"
        }
      ],
      "name": "WaveMerkleRootSet",
      "type": "event"
    },
    {
      "anonymous": false,
      "inputs": [
        {
          "indexed": false,
          "internalType": "uint256[]",
          "name": "burned",
          "type": "uint256[]"
        },
        {
          "indexed": true,
          "internalType": "uint256",
          "name": "minted",
          "type": "uint256"
        },
        {
          "indexed": true,
          "internalType": "address",
          "name": "to",
          "type": "address"
        }
      ],
      "name": "BurnAndUpgrade",
      "type": "event"
    },
    {
      "anonymous": false,
      "inputs": [
        {
          "indexed": true,
          "internalType": "address",
          "name": "to",
          "type": "address"
        },
        {
          "indexed": false,
          "internalType": "uint8",
          "name": "season",
          "type": "uint8"
        },
        {
          "indexed": true,
          "internalType": "uint256",
          "name": "tokenId",
          "type": "uint256"
        }
      ],
      "name": "SeasonPassMinted",
      "type": "event"
    }
  ],
  "bytecode": "0x6080604052346100c35761701380380380610019816100db565b92833981019060c0818303126100c35780516001600160401b0381116100c35782610045918301610105565b60208201519091906001600160401b0381116100c35783610067918301610105565b60408201516001600160401b0381116100c3576100b494610089918401610105565b61009560608401610156565b916100ae60a06100a760808701610156565b9501610156565b946103ff565b604051615f789081610f5b8239f35b5f80fd5b634e487b7160e01b5f52604160045260245ffd5b6040519190601f01601f191682016001600160401b0381118382101761010057604052565b6100c7565b81601f820112156100c3578051906001600160401b03821161010057610134601f8301601f19166020016100db565b92828452602083830101116100c357815f9260208093018386015e8301015290565b51906001600160a01b03821682036100c357565b90600182811c92168015610198575b602083101461018457565b634e487b7160e01b5f52602260045260245ffd5b91607f1691610179565b601f81116101ae575050565b60025f5260205f20906020601f840160051c830193106101e8575b601f0160051c01905b8181106101dd575050565b5f81556001016101d2565b90915081906101c9565b601f82116101ff57505050565b5f5260205f20906020601f840160051c83019310610237575b601f0160051c01905b81811061022c575050565b5f8155600101610221565b9091508190610218565b80519091906001600160401b0381116101005761026a8161026360255461016a565b60256101f2565b602092601f82116001146102aa5761029a929382915f9261029f575b50508160011b915f199060031b1c19161790565b602555565b015190505f80610286565b60255f52601f198216937f401968ff42a154441da5f6c4c935ac46b8671f0e062baaa62a7545ba53bb6e4c915f5b86811061030e57508360019596106102f6575b505050811b01602555565b01515f1960f88460031b161c191690555f80806102eb565b919260206001819286850151815501940192016102d8565b80519091906001600160401b0381116101005761034f8161034860035461016a565b60036101f2565b602092601f82116001146103835761037e929382915f9261029f5750508160011b915f199060031b1c19161790565b600355565b60035f52601f198216937fc2575a0e9e593c00f959f8c92f12db2869c3395a3b0502d05e2516446f71f85b915f5b8681106103e757508360019596106103cf575b505050811b01600355565b01515f1960f88460031b161c191690555f80806103c4565b919260206001819286850151815501940192016103b1565b9061040f91959394929533610807565b6001600160a01b0383161580156107f6575b80156107e5575b80156107dc575b6107cd576104a8610511926104466107cb96610241565b600c805460ff60a81b19169055610465600160ff196022541617602255565b61046f6005601f55565b610481600160ff196020541617602055565b60208054610100600160a81b03191660089290921b610100600160a81b0316919091179055565b6104b133610950565b506104bb83610950565b506104c581610950565b506104cf816109c6565b506104d981610a61565b506104e381610afb565b506104ed81610b96565b506104f781610c31565b5061050181610ccc565b5061050b81610d67565b50610e02565b5061051b81610e9d565b6cadc04c56bf30ac9d3c0aaf14dc5f5260216020526105617fe80ce1b719af35ac87168a697143fa8675d0f93d885134154ca848c89a2ee748805460ff19166001179055565b60015f52600f6020526105967f169f97de0d9a84d840042b17d3c6b9638b3d6fd9024c9eb0c7a306a17b49f88f5b61012f9055565b60025f52600f6020526105c87fa74ba3945261e09fde15ba3db55005b205e61eeb4ad811ac0faa2b315bffeead61058f565b61025e7f45f76dafbbad695564362934e24d72eedc57f9fc1a65f39bca62176cc82968285561038d7f367ccd2d0ac16bf7110a5dffe0801fdc9452a95a1adb7e1a12fe97dd3e9a4edd556105eb7f6bda57492eba051cb4a12a1e19df47c9755d78165341d4009b1d09b3f3616204556109787fb5a1e7cda73b1608e93d4d50ab796c3d35aa6216cb006a1f920df154d13ff61855610f637f73dfc495eb54bd6713ffc079b9f5e40f2fecd3793d143759ba0128fbedb4025455600e6020525f7fa7c5ba7114a813b50159add3a36832908dc83db71d0b9a24c2ad0f83be958207819055600290526106e07f9adb202b1492743bc00c81d33cdc6423fa8c79109027eb6a845391e8fc1f04815b666ba5b080b1c0009055565b60035f52600e6020526107127fe0283e559c29e31ee7f56467acc9dd307779c843a883aeeb3bf5c6128c9081446106d4565b600e60205266d74b61016380007fa1d6913cd9e08c872be3e7525cca82e4fc0fc298a783f19022be725b19be685a55670142f111821540007fb9bec7e2561f624fe753ff070f1599b306cbf59fafd4e8d5a8184a1ea1841bce5567021a3c728378c0007f92b4482321f41ce3aa65f798bda23d0d12a60fc5f212868a548ddb00aa49de725560075f5267035d2d84058e00007f376529bb8a2d41b4a589a133407fc64f3212472dbd74744348be1098bf7ba08d55610eff565b565b635435b28960e11b5f5260045ffd5b5083511561042f565b506001600160a01b03821615610428565b506001600160a01b03811615610421565b815191939290916001600160401b038111610100576108308161082b60025461016a565b6101a2565b6020601f82116001146108c95790806108639261086b9596975f9261029f5750508160011b915f199060031b1c19161790565b600255610326565b61087460015f55565b61089d60017f9b779b17422d0df92223018b32b4d1fa46e071723d6817e2486d003becc55f0055565b6001600160a01b038116156108b5576107cb90610eff565b631e4fbdf760e01b5f90815260045260245ffd5b60025f52601f198216957f405787fa12a823e0f2b7631cc41b3ba8828b3321ca811111fa75cd3aa3bb5ace965f5b81811061093857509161086b95969791846001959410610920575b505050811b01600255610326565b01515f1960f88460031b161c191690555f8080610912565b838301518955600190980197602093840193016108f7565b6001600160a01b0381165f9081525f516020616f535f395f51905f52602052604090205460ff166109c1576001600160a01b03165f8181525f516020616f535f395f51905f5260205260408120805460ff191660011790553391905f516020616ed35f395f51905f528180a4600190565b505f90565b6001600160a01b0381165f9081525f516020616f935f395f51905f52602052604090205460ff166109c1576001600160a01b0381165f9081525f516020616f935f395f51905f5260205260409020805460ff1916600117905533906001600160a01b03167fdcafc294b1f1d23b81c2d8f3b760d3d1ada4d9e4f865ba6e5173f9560600d7545f516020616ed35f395f51905f525f80a4600190565b6001600160a01b0381165f9081525f516020616fb35f395f51905f52602052604090205460ff166109c1576001600160a01b0381165f9081525f516020616fb35f395f51905f5260205260409020805460ff1916600117905533906001600160a01b03167e6b97d3b00e0cfa27932db8d8710f84e2b8d72f339a1e910bf97a09597e99d65f516020616ed35f395f51905f525f80a4600190565b6001600160a01b0381165f9081525f516020616f135f395f51905f52602052604090205460ff166109c1576001600160a01b0381165f9081525f516020616f135f395f51905f5260205260409020805460ff1916600117905533906001600160a01b03167f10dac8c06a04bec0b551627dad28bc00d6516b0caacd1c7b345fcdb5211334e45f516020616ed35f395f51905f525f80a4600190565b6001600160a01b0381165f9081525f516020616ef35f395f51905f52602052604090205460ff166109c1576001600160a01b0381165f9081525f516020616ef35f395f51905f5260205260409020805460ff1916600117905533906001600160a01b03167f65d7a28e3265b37a6474929f336521b332c1681b933f6cb9f3376673440d862a5f516020616ed35f395f51905f525f80a4600190565b6001600160a01b0381165f9081525f516020616ff35f395f51905f52602052604090205460ff166109c1576001600160a01b0381165f9081525f516020616ff35f395f51905f5260205260409020805460ff1916600117905533906001600160a01b03167feb54e1feee3ae17add098cbf58a47457bf5f7c3a89ceab263cbdb01b3da6d98e5f516020616ed35f395f51905f525f80a4600190565b6001600160a01b0381165f9081525f516020616f335f395f51905f52602052604090205460ff166109c1576001600160a01b0381165f9081525f516020616f335f395f51905f5260205260409020805460ff1916600117905533906001600160a01b03167fbf233dd2aafeb4d50879c4aa5c81e96d92f6e6945c906a58f9f2d1c1631b4b265f516020616ed35f395f51905f525f80a4600190565b6001600160a01b0381165f9081525f516020616f735f395f51905f52602052604090205460ff166109c1576001600160a01b0381165f9081525f516020616f735f395f51905f5260205260409020805460ff1916600117905533906001600160a01b03167fbc3bede9c13127d9f696fc0d163537e2d7209c1bcb089ad5680b00700535ea4c5f516020616ed35f395f51905f525f80a4600190565b6001600160a01b0381165f9081525f516020616fd35f395f51905f52602052604090205460ff166109c1576001600160a01b0381165f9081525f516020616fd35f395f51905f5260205260409020805460ff1916600117905533906001600160a01b03167fc5f203f678866d513a9633a9f43a84c42f54befeb73a32c75c4858bbd2ba33685f516020616ed35f395f51905f525f80a4600190565b6001600160a01b03811615610eec5760408051919082016001600160401b03811183821017610100576040526001600160a01b03168082526101f4602090920191909152607d60a21b17600955565b635b6cc80560e11b5f525f60045260245ffd5b600c8054610100600160a81b03198116600884811b610100600160a81b0316919091179092556001600160a01b0392831692911c167f8be0079c531659141344cd1fd0a4f28419497f9722a3daafe3b4186f6b6457e05f80a356fe60806040526004361015610011575f80fd5b5f3560e01c806301ef2266146106ef57806301ffc9a7146106ea578063055ad42e146106e557806306fdde03146106e0578063081812fc146106db578063095ea7b3146106d6578063099b6bfa146106d15780631160da15146104f657806318160ddd146106cc5780631a77447c146106c757806320df4359146106c257806323b872dd146106bd578063248a9ca3146106b857806329263774146106b35780632a55205a146106ae5780632b25ac6f146106a95780632eb4a7ab146106a45780632f2ff15d1461069f5780632f44dee81461069a5780632f745c591461069557806332cb6b0c1461069057806335b542ab1461068b57806336568abe1461068657806336c54f941461068157806337b83cce1461067c5780633ba3984d146106775780633de5d9b3146106725780633e91b5161461066d5780633f4ba83a14610668578063409050f91461066357806342842e0e1461065e57806342966c68146106595780634626402b14610654578063484d1ad61461064f5780634c2612471461064a5780634f92e4101461064557806351cff8d9146106405780635a089b301461063b5780635a23dd99146106365780635bbb2177146106315780635c975abb1461062c5780635f1770a2146106275780635f7aa41d1461062257806361a133611461061d5780636352211e1461061857806365cde7331461061357806367afbbd71461060e5780636895d59e1461060957806369ab300d1461060457806370a08231146105ff578063715018a6146105fa57806371617896146105f5578063725723d7146105f0578063730ed97b146105eb5780637468f5a3146105e65780637894505e146105e15780637cb64759146105dc5780637d5c1914146105d75780637dd0849e146105d25780638456cb59146105cd5780638462151c146105c857806385f438c1146105c35780638da5cb5b146105be5780638e1941de146105b95780638f2fc60b146105b457806391d14854146105af578063938e3d7b146105aa57806394408b9a146105a557806395d89b41146105a057806397e6af661461059b57806399a2557a146105965780639fe577ce14610591578063a0ede7b81461058c578063a217fddf14610587578063a22cb46514610582578063a65948a31461057d578063a85cde4414610578578063a8602fea14610573578063ac8154de1461056e578063aed5be3514610569578063afb0a36914610564578063b0ea7dcf1461055f578063b1324f7b1461055a578063b5bc060e14610555578063b6faa57514610550578063b88d4fde1461054b578063bed310a714610546578063c03afb5914610541578063c23dc68f1461053c578063c6ab67a314610537578063c87b56dd14610532578063ca8191d61461052d578063cb9fcffb14610528578063d16825ac14610523578063d541f0c71461051e578063d547741f14610519578063d70299ca14610514578063dc8e92ea1461050f578063e58306f91461050a578063e63ab1e914610505578063e8a3d48514610500578063e985e9c5146104fb578063ebd01932146104f6578063ecf74cf3146104f1578063eebfbe23146104ec578063f1e25ea8146104e7578063f2fde38b146104e2578063f3dc2996146104dd578063f4201c3c146104d85763faeb8f9f146104d3575f80fd5b6141e7565b6141a7565b6140e7565b614012565b613fe5565b613f81565b613eeb565b610af8565b613e93565b613dee565b613db4565b613ce4565b613b50565b613b10565b613acf565b613aa0565b613a29565b6139ef565b6139b5565b613982565b613965565b613904565b613886565b6136d0565b61364f565b61359e565b613583565b61355e565b61335e565b613331565b613314565b6131e9565b613168565b61313e565b612ef2565b612e6e565b612e54565b612cb4565b612c32565b612ac2565b612a41565b61299c565b61292f565b6127d8565b612786565b612654565b612625565b6125f9565b6125bf565b61242b565b612399565b61222c565b6121c2565b61213b565b6120d5565b6120a0565b612060565b611fdd565b611fb6565b611f57565b611f30565b611ea3565b611e86565b611e1b565b611b7b565b611b4c565b611b12565b611ad7565b611a9e565b611a7c565b6119ad565b6118db565b61189b565b611801565b6116fd565b611574565b611414565b6113ea565b61127b565b6111ec565b6111c2565b61115c565b610fdd565b610f87565b610f66565b610f37565b610f0d565b610ec5565b610ea3565b610e87565b610e5c565b610e3e565b610df8565b610ddb565b610da1565b610d12565b610ce8565b610cb5565b610c28565b610bc2565b610b46565b610b22565b610a95565b610a0b565b6109ab565b6108d5565b610873565b610780565b610740565b7fbf233dd2aafeb4d50879c4aa5c81e96d92f6e6945c906a58f9f2d1c1631b4b265f52600b6020527fcb168ddb972f6060b735e8ba4d8785a3a7e035a53c430ed3b60f741034730d0a90565b3461076a57602036600319011261076a576004355f526019602052602060405f2054604051908152f35b5f80fd5b6001600160e01b031981160361076a57565b3461076a57602036600319011261076a576107e76004356107a08161076e565b6001600160e01b031981166301ffc9a760e01b811491908215610837575b8215610826575b8215610815575b82156107eb575b505060405190151581529081906020820190565b0390f35b637965db0b60e01b1491508115610805575b505f806107d3565b61080f9150614b44565b5f6107fd565b915061082081614b44565b916107cc565b635b5e139f60e01b811492506107c5565b6380ac58cd60e01b811492506107be565b6003111561085257565b634e487b7160e01b5f52602160045260245ffd5b9060038210156108525752565b3461076a575f36600319011261076a57602060ff600c5460a81c1661089b6040518092610866565bf35b805180835260209291819084018484015e5f828201840152601f01601f1916010190565b9060206108d292818152019061089d565b90565b3461076a575f36600319011261076a576040515f6002546108f5816140af565b80845290600181169081156109875750600114610929575b6107e78361091d81850382611498565b604051918291826108c1565b60025f9081527f405787fa12a823e0f2b7631cc41b3ba8828b3321ca811111fa75cd3aa3bb5ace939250905b80821061096d5750909150810160200161091d61090d565b919260018160209254838588010152019101909291610955565b60ff191660208086019190915291151560051b8401909101915061091d905061090d565b3461076a57602036600319011261076a576004356109c881614b70565b156109eb575f526006602052602060018060a01b0360405f205416604051908152f35b6333d1c03960e21b5f5260045ffd5b6001600160a01b0381160361076a57565b604036600319011261076a57600435610a23816109fa565b60243560225460ff8160081c16610a865760ff90610a3f614c32565b1680610a64575b610a5557610a5391615b35565b005b6311de472b60e11b5f5260045ffd5b506001600160a01b0382165f9081526021602052604090205460ff1615610a46565b63a36582a560e01b5f5260045ffd5b3461076a57602036600319011261076a57600435610ab1614c4d565b600d54610ae9576020817ff80966205a4d1d0094608cf0d20e08a2e5e7a075c0350b1bff1fa4a4ae4c497892600d55604051908152a1005b63043da58360e51b5f5260045ffd5b3461076a57602036600319011261076a576004355f526014602052602060405f2054604051908152f35b3461076a575f36600319011261076a575f5460015460405191035f19018152602090f35b3461076a575f36600319011261076a5761010060ff600c5460a81c16610b6d5f195f540190565b60225460ff60245491816020541692601f5494610b8d6040518098610866565b602087015261270f6040870152828260081c1615156060870152608086015216151560a0840152151560c083015260e0820152f35b3461076a575f36600319011261076a5760206040517fbf233dd2aafeb4d50879c4aa5c81e96d92f6e6945c906a58f9f2d1c1631b4b268152f35b606090600319011261076a57600435610c14816109fa565b90602435610c21816109fa565b9060443590565b610c3136610bfc565b90336001600160a01b038416141580610ca9575b80610c90575b80610c5e575b610a5557610a5392614fde565b50610c8b60ff610c8533610c706106f4565b9060018060a01b03165f5260205260405f2090565b54161590565b610c51565b50335f52602160205260ff60405f205416151515610c4b565b5060ff60225416610c45565b3461076a57602036600319011261076a576020610ce06004355f52600b602052600160405f20015490565b604051908152f35b3461076a57602036600319011261076a576004355f52600f602052602060405f2054604051908152f35b3461076a57604036600319011261076a576004355f908152600a60205260409020546001600160a01b038116906024359060a01c8215610d89575b610d6c916001600160601b03610d64921690614380565b612710900490565b604080516001600160a01b03939093168352602083019190915290f35b506009546001600160a01b038116925060a01c610d4d565b3461076a575f36600319011261076a5760206040517fc5f203f678866d513a9633a9f43a84c42f54befeb73a32c75c4858bbd2ba33688152f35b3461076a575f36600319011261076a576020601754604051908152f35b3461076a57604036600319011261076a57610a53602435600435610e1b826109fa565b610e39610e34825f52600b602052600160405f20015490565b614fa4565b615157565b3461076a57602036600319011261076a576020610ce06004356143d0565b3461076a57604036600319011261076a576020610ce0600435610e7e816109fa565b60243590614474565b3461076a575f36600319011261076a57602060405161270f8152f35b3461076a575f36600319011261076a57602060ff602254166040519015158152f35b3461076a57604036600319011261076a57600435602435610ee5816109fa565b336001600160a01b03821603610efe57610a53916151e7565b63334bd91960e11b5f5260045ffd5b3461076a57602036600319011261076a576004355f526010602052602060405f2054604051908152f35b3461076a57602036600319011261076a576004355f526016602052602060ff60405f2054166040519015158152f35b3461076a575f36600319011261076a57602060ff8154166040519015158152f35b3461076a57602036600319011261076a576004355f52601b60205260a060405f20805490600181015490600281015460046003830154920154926040519485526020850152604084015260608301526080820152f35b3461076a5760a036600319011261076a57600435606435604435602435608435611005614c9c565b600185108015611152575b61114357611026855f52601060205260405f2090565b54611134578215801561112a575b8015611122575b801561111a575b61110b577feef69408724f943041d4d21c8f4ffa1e83005ad089f852aceb833da8f4ac793e936110cf916110746114be565b91848352856020840152604083015260608201525f60808201526110a0865f52601b60205260405f2090565b906080600491805184556020810151600185015560408101516002850155606081015160038501550151910155565b6110f16110e4855f52601c60205260405f2090565b805460ff19166001179055565b60408051918252602082019290925290819081015b0390a2005b635435b28960e11b5f5260045ffd5b508015611042565b50831561103b565b5082821115611034565b630ed183f960e31b5f5260045ffd5b637a93577960e11b5f5260045ffd5b5060078511611010565b3461076a575f36600319011261076a57611174614d0b565b600c5460ff8116156111b35760ff1916600c557f5db9ee0a495bf2e6ff9c91a7834c1ba4fdd244a5e8aa4e537bd38aeae4b073aa6020604051338152a1005b638dfc202b60e01b5f5260045ffd5b3461076a57602036600319011261076a576004355f526011602052602060405f2054604051908152f35b6111f536610bfc565b60405191611204602084611498565b5f8352336001600160a01b03851614158061126f575b80611256575b80611233575b610a5557610a53936158c4565b5061125161124d61124633610c706106f4565b5460ff1690565b1590565b611226565b50335f9081526021602052604090205460ff1615611220565b5060ff6022541661121a565b3461076a57602036600319011261076a576004356001600160a01b036112a0826152f8565b1633036113db576112b0816152f8565b5f82815260066020526040902080546001600160a01b0383169291906112d584615c0d565b6113d2575b506001600160a01b0382165f90815260056020526040902080546001600160801b030190556001600160a01b0382164260a01b17600360e01b17611326845f52600460205260405f2090565b55600160e11b81161561138d575b50815f604051925f516020615f035f395f51905f528280a461136061135b60015460010190565b600155565b42815233907f23ff0e75edf108e3d0392d92e13e8c8a868ef19001bd49f9e94876dc46dff87f90602090a3005b600183016113a3815f52600460205260405f2090565b54156113b0575b50611334565b5f5481146113aa576113ca905f52600460205260405f2090565b555f806113aa565b5f90555f6112da565b638cd22d1960e01b5f5260045ffd5b3461076a575f36600319011261076a576020805460405160089190911c6001600160a01b03168152f35b3461076a57602036600319011261076a57600435611431816109fa565b611439614d7a565b60018060a01b0316805f52602360205260405f20600160ff198254161790557fe1356d1b4e335a360d5f6d316f8e6edd07a93a6e42860a1e050a39a23d407f116020604051428152a2005b634e487b7160e01b5f52604160045260245ffd5b90601f801991011681019081106001600160401b038211176114b957604052565b611484565b604051906114cd60a083611498565b565b604051906114cd604083611498565b6001600160401b0381116114b957601f01601f191660200190565b929192611505826114de565b916115136040519384611498565b82948184528183011161076a578281602093845f960137010152565b9080601f8301121561076a578160206108d2933591016114f9565b602060031982011261076a57600435906001600160401b03821161076a576108d29160040161152f565b3461076a576115823661154a565b61158a614de9565b8051156116be5760015b600781111561162b577fb8c1ac940ded1aa978d3aa731d336abbdb3a52bbd18626855a4e73e4d23eea5c6115f7836115d56115d060245461452d565b602455565b600c805460ff60a81b1916600160a91b1790555b6040519182914290836146a5565b0390a16040517fcb08c3f93492805e6d9f1d42f6f2ea7f280e2e41c061f13eec2ada60f59719e333918061110642826146c1565b8061164761124d611246611650945f52601660205260405f2090565b6116555761452d565b611594565b6116708361166b835f52601560205260405f2090565b6145da565b6116856110e4825f52601660205260405f2090565b807fcd57f2f51d4bcd93962788ae0e6ef9666c52207e31385a27e732369a10938880604051806116b64288836146a5565b0390a261452d565b633ba0191160e01b5f5260045ffd5b9181601f8401121561076a578235916001600160401b03831161076a576020808501948460051b01011161076a57565b3461076a57604036600319011261076a576004356001600160401b03811161076a5761172d9036906004016116cd565b6024356001600160401b03811161076a5761174c9036906004016116cd565b9092611756614c9c565b81830361110b575f5b83811061176857005b600161178661178061177b84878a6146d9565b6146fd565b60ff1690565b1080156117e7575b6117d857806117d26117a661177b600194878a6146d9565b6117c36117b48489886146d9565b355f52601a60205260405f2090565b9060ff1660ff19825416179055565b0161175f565b63511785ad60e01b5f5260045ffd5b50600460ff6117fa61177b84878a6146d9565b161161178e565b3461076a57602036600319011261076a5760043561181e816109fa565b611826614e57565b61182e61526f565b6001600160a01b0316801561188c574790811561187d575f80809381935af1611855614707565b501561186e5760015f516020615f235f395f51905f5255005b6312171d8360e31b5f5260045ffd5b636165515360e11b5f5260045ffd5b63e6c4247b60e01b5f5260045ffd5b3461076a57602036600319011261076a576004356118b8816109fa565b60018060a01b03165f526018602052602060ff60405f2054166040519015158152f35b3461076a57604036600319011261076a576004356118f8816109fa565b602435906001600160401b03821161076a5761196861196d916119226107e79436906004016116cd565b92906017549260405161195d8161194f6020820194856014916001600160601b03199060601b1681520190565b03601f198101835282611498565b519020933691614736565b6152a7565b60405190151581529081906020820190565b602060031982011261076a57600435906001600160401b03821161076a576119a9916004016116cd565b9091565b3461076a576119bb3661197f565b906040519180835260051b6020818401016040525b808180156119f657601f19908101926119ed91908501013561480b565b908401526119d0565b846040518091602082016020835281518091526020604084019201905f5b818110611a22575050500390f35b919350916020608082611a6e600194885162ffffff6060809260018060a01b0381511685526001600160401b036020820151166020860152604081015115156040860152015116910152565b019401910191849392611a14565b3461076a575f36600319011261076a57602060ff600c54166040519015158152f35b3461076a575f36600319011261076a5760206040517e6b97d3b00e0cfa27932db8d8710f84e2b8d72f339a1e910bf97a09597e99d68152f35b3461076a57602036600319011261076a57600435611af4816109fa565b60018060a01b03165f52601e602052602060405f2054604051908152f35b3461076a575f36600319011261076a5760206040517fbc3bede9c13127d9f696fc0d163537e2d7209c1bcb089ad5680b00700535ea4c8152f35b3461076a57602036600319011261076a5760206001600160a01b03611b726004356152f8565b16604051908152f35b602036600319011261076a57600435611b92614c32565b611b9a61526f565b600c5460019060a81c60ff16611baf81610848565b03611dee57611bbc615363565b801561110b5761270f611bd982611bd45f195f540190565b6143c3565b11611ddf5760025f526010602052611c13817f853b2fefe141400fef543280f93d98bd49996069f632d0d20236afeeed8e46a25b546143c3565b60025f52600f6020527fa74ba3945261e09fde15ba3db55005b205e61eeb4ad811ac0faa2b315bffeead5410611dd057611c4d81336155c1565b60025f52600e602052611c81817f9adb202b1492743bc00c81d33cdc6423fa8c79109027eb6a845391e8fc1f048154614380565b90813410611dc1575f8054600290915260106020527f853b2fefe141400fef543280f93d98bd49996069f632d0d20236afeeed8e46a2611cc28382546143c3565b9055335f908152601e60205260409020611cdd8382546143c3565b9055611ce9823361571e565b5f5b828110611d6d57505060025f516020615ec35f395f51905f5260405180611d183395829190602083019252565b0390a3803411611d39575b610a5360015f516020615f235f395f51905f5255565b5f8080611d478194346143b6565b335af1611d52614707565b5015611d5e575f611d23565b633c31275160e21b5f5260045ffd5b80611d94611d8e611d80600194866143c3565b5f52601460205260405f2090565b60029055565b6002611da082856143c3565b60405142815233905f516020615ee35f395f51905f5290602090a401611ceb565b63788a686f60e01b5f5260045ffd5b630b3f3d4160e21b5f5260045ffd5b637d3d824960e01b5f5260045ffd5b6338961af360e21b5f5260045ffd5b60043590811515820361076a57565b60243590811515820361076a57565b3461076a57604036600319011261076a577fd5027f231bc4a5816d9961fbd9b6a122d3c61d5a178e13de3b475c0f27db6c186040611e57611dfd565b60243590611e63614c9c565b15159060ff196020541660ff83161760205580601f5582519182526020820152a1005b3461076a575f36600319011261076a576020601f54604051908152f35b3461076a57604036600319011261076a57600435611ec0816109fa565b611ec8611e0c565b90611ed1614c9c565b6001600160a01b031690811561188c5760207f8897540f6ae7966d6db1da57df21c57a76b1c0c6e6afe4c3a1a288ff960adad791835f52601d8252611f258160405f209060ff801983541691151516179055565b6040519015158152a2005b3461076a57602036600319011261076a576020610ce0600435611f52816109fa565b6147a1565b3461076a575f36600319011261076a57611f6f615824565b600c8054610100600160a81b031981169091555f9060081c6001600160a01b03167f8be0079c531659141344cd1fd0a4f28419497f9722a3daafe3b4186f6b6457e08280a3005b3461076a575f36600319011261076a5760206040516cadc04c56bf30ac9d3c0aaf14dc8152f35b3461076a57604036600319011261076a57600435602435611ffc614c9c565b600182108015612056575b61114357815f52601060205260405f20546111345760207f57d73367937700ec1a48a428e1e3dfe47cd7061cfca2113e8cd717c908fdf6d691835f52600e82528060405f2055604051908152a2005b5060078211612007565b3461076a57602036600319011261076a5760043561207d816109fa565b60018060a01b03165f526021602052602060ff60405f2054166040519015158152f35b3461076a57602036600319011261076a576004355f526012602052602060405f2054604051908152f35b60ff81160361076a57565b3461076a57604036600319011261076a576004356024356120f5816120ca565b6120fd614c9c565b60ff811660018110908115612130575b506117d857610a53915f52601a60205260405f209060ff1660ff19825416179055565b60049150115f61210d565b3461076a57602036600319011261076a57335f9081527fb0813042084980e6c382d768b67fd12ee1f06f099e6b1e046c220eb9ee5a48be60205260409020546004359060ff161561218b57601755005b63e2517d3f60e01b5f52336004527fdcafc294b1f1d23b81c2d8f3b760d3d1ada4d9e4f865ba6e5173f9560600d75460245260445ffd5b3461076a57602036600319011261076a576004356121df816109fa565b6001600160a01b03165f908152601e6020908152604080832054601d835281842054601884529382902054825191825260ff94851615159382019390935292909116151590820152606090f35b3461076a57602036600319011261076a5760043561225861124d611246835f52601360205260405f2090565b908161237c575b8161235e575b81612340575b6107e7612280825f52600e60205260405f2090565b5491612294815f52600f60205260405f2090565b54936122a8825f52601060205260405f2090565b54916122bc815f52601160205260405f2090565b546122cf825f52601260205260405f2090565b54906122fb6112466122ec611246865f52601360205260405f2090565b945f52601660205260405f2090565b9460405198899889969390989794919260e0969361010089019a89526020890152604088015260608701526080860152151560a0850152151560c08401521515910152565b9050612354815f52601260205260405f2090565b544211159061226b565b9050612372815f52601160205260405f2090565b5442101590612265565b9050612390815f52601160205260405f2090565b5415159061225f565b3461076a575f36600319011261076a576123b1614d0b565b6123b9614c32565b600160ff19600c541617600c557f62e78cea01bee320cd4e420270b5ea74000d11b0c9f74754ebdbfc544b05a2586020604051338152a1005b60206040818301928281528451809452019201905f5b8181106124155750505090565b8251845260209384019390920191600101612408565b3461076a57602036600319011261076a57600435612448816109fa565b5f5460609080600103612464575b604051806107e784826123f2565b908192600190606093808310156125ba575f54809110156125b2575b5061248a816147a1565b92858310156125aa575b836124a9575b505050506107e791505f612456565b92935090915f198501848111156125a2575b506040519183850160051b830194856040526124d68561480b565b905f916124e961124d6040830151151590565b612590575b505f97919591825b15612561575b5f966125078461595a565b60408101511561252657505060015f935b0196886040529692966124f6565b9390935180612559575b50848418861b15612544575b600190612518565b6001909901600581901b87018a90529861253c565b93505f612530565b8083148015612587575b156124fc5750505050509150506107e79181525f80808061249a565b5081891461256b565b516001600160a01b031691505f6124ee565b93505f6124bb565b5f9350612494565b94505f612480565b614c23565b3461076a575f36600319011261076a5760206040517f10dac8c06a04bec0b551627dad28bc00d6516b0caacd1c7b345fcdb5211334e48152f35b3461076a575f36600319011261076a57600c5460405160089190911c6001600160a01b03168152602090f35b3461076a57602036600319011261076a576004355f52601c602052602060ff60405f2054166040519015158152f35b3461076a57604036600319011261076a57600435612671816109fa565b6024356001600160601b0381169182820361076a5761268e614ec6565b6001600160a01b0381169283159081801561277b575b61276c5761271081116127545750612741577f8039bd6e4e7dba001c8840eb2e118d9d131246faa7d0d04335f7305127ec0b1091612727611106926126f96126ea6114cf565b6001600160a01b039092168252565b6001600160601b0383166020820152516001600160a01b03166001600160a01b031960a084901b1617600955565b6040516001600160601b0390911681529081906020820190565b635b6cc80560e11b5f525f60045260245ffd5b636f483d0960e01b5f5260045261271060245260445ffd5b6304e4bbf960e41b5f5260045ffd5b506103e881116126a4565b3461076a57604036600319011261076a57602060ff6127cc6024356004356127ad826109fa565b5f52600b845260405f209060018060a01b03165f5260205260405f2090565b54166040519015158152f35b3461076a576127e63661154a565b6127ee614c4d565b8051156116be5780516001600160401b0381116114b957612819816128146026546140af565b61453b565b6020601f821160011461288a579161286b8261287a937f905d981207a7d0b6c62cc46ab0be2a076d0298e4a86d0ab79882dbd01ac37378955f9161287f575b508160011b915f199060031b1c19161790565b602655604051918291826108c1565b0390a1005b90508301515f612858565b60265f52601f198216907f744a2cf8fd7008e3d53b67916e73460df9fa5214e3ef23dd4259ca09493a3594915f5b8181106129175750927f905d981207a7d0b6c62cc46ab0be2a076d0298e4a86d0ab79882dbd01ac3737894926001928261287a96106128ff575b5050811b0160265561091d565b8401515f1960f88460031b161c191690555f806128f2565b919260206001819286890151815501940192016128b8565b3461076a57602036600319011261076a5760043561294c816109fa565b612954614d7a565b60018060a01b0316805f52602360205260405f2060ff1981541690557f598a341bb3bacf68ce1b3e63186eacd1c5e12ade93d19dd1dcdecc3b77dea71a6020604051428152a2005b3461076a575f36600319011261076a576040515f6003546129bc816140af565b808452906001811690811561098757506001146129e3576107e78361091d81850382611498565b60035f9081527fc2575a0e9e593c00f959f8c92f12db2869c3395a3b0502d05e2516446f71f85b939250905b808210612a275750909150810160200161091d61090d565b919260018160209254838588010152019101909291612a0f565b3461076a57602036600319011261076a577fad3058a6ff3af5a17a885c3a92246dea020c99bf7f1bad4cd6e2e74f134aca036020612a7d611dfd565b612a85614c4d565b151560ff196022541660ff821617602255604051908152a1005b606090600319011261076a57600435612ab7816109fa565b906024359060443590565b3461076a57612ad036612a9f565b916060918381818110156125ba57600111612c29575b5f5480911015612c21575b50612afb826147a1565b9184821015612c19575b82612b19575b604051806107e786826123f2565b9080929350840383811115612c11575b50604051906001840160051b82019384604052612b458461480b565b905f91612b5861124d6040830151151590565b612bff575b505f9691949160015b15612bd2575b5f95612b778461595a565b604081015115612b9657505060015f935b019587604052959295612b66565b9390935180612bca575b5084841860601b15612bb5575b600190612b88565b6001909801600581901b860189905297612bad565b93505f612ba0565b8083148015612bf6575b15612b6c57505050509150506107e79181525f8080612b0b565b50818814612bdc565b516001600160a01b031691505f612b5d565b92505f612b29565b5f9250612b05565b93505f612af1565b60019150612ae6565b3461076a57604036600319011261076a57600435612c4f816109fa565b612c57611e0c565b90612c60614c4d565b6001600160a01b031690811561188c5760207fb3f6a8899efaca0f5b84498c0cfa3f9d35bdb3a05168c768dff3c96628138ba091835f5260218252611f258160405f209060ff801983541691151516179055565b3461076a57604036600319011261076a576004356024356001600160401b03811161076a57612ce790369060040161152f565b90612cf0614de9565b600181108015612e4a575b611143578151156116be57805f52601560205260405f20918051926001600160401b0384116114b957612d3884612d3283546140af565b8361458b565b602093601f8111600114612dbd5790612d8c8261110694937fcd57f2f51d4bcd93962788ae0e6ef9666c52207e31385a27e732369a1093888096975f91612db257508160011b915f199060031b1c19161790565b90555b612da46110e4855f52601660205260405f2090565b6115e96115d060245461452d565b90508401515f612858565b601f198116612dcf835f5260205f2090565b905f5b818110612e325750916001917fcd57f2f51d4bcd93962788ae0e6ef9666c52207e31385a27e732369a1093888096978261110697969510612e1a575b5050811b019055612d8f565b8501515f1960f88460031b161c191690555f80612e0e565b85880151835560209788019760019093019201612dd2565b5060078111612cfb565b3461076a575f36600319011261076a5760206040515f8152f35b3461076a57604036600319011261076a57600435612e8b816109fa565b612e93611e0c565b60225460ff8160081c16610a86578190612eab614c32565b81612ee7575b5080612ec5575b610a5557610a539161584e565b506001600160a01b0382165f9081526021602052604090205460ff1615612eb8565b60ff9150165f612eb1565b3461076a57602036600319011261076a57600435612f0e614c9c565b612f1661526f565b600181108015613134575b61114357612f3a611246825f52601360205260405f2090565b61312557612f50815f52601260205260405f2090565b54151580613109575b6130fa57612f8c612f72825f52600f60205260405f2090565b54612f85835f52601060205260405f2090565b54906143b6565b8061300c575b7fee8c755591742a255ec1d2615761038040100d510863c35f60f1fcac482c00c090612fc96110e4845f52601360205260405f2090565b60205460081c6001600160a01b0316604080519283526001600160a01b039091166020830152819081010390a2610a5360015f516020615f235f395f51905f5255565b61270f61301e82611bd45f195f540190565b11611ddf575f5460205461303f90839060081c6001600160a01b031661571e565b5f5b8281106130995750507fee8c755591742a255ec1d2615761038040100d510863c35f60f1fcac482c00c09061307e835f52600f60205260405f2090565b54613091845f52601060205260405f2090565b559050612f92565b80846130aa611d80600194866143c3565b55602054859060081c6001600160a01b03166130c683866143c3565b905f516020615ee35f395f51905f5260405191868060a01b031691806130f142829190602083019252565b0390a401613041565b630c4845d160e41b5f5260045ffd5b5061311c815f52601260205260405f2090565b54421115612f59565b63028dffe160e31b5f5260045ffd5b5060078111612f21565b3461076a57602036600319011261076a576004355f52600e602052602060405f2054604051908152f35b3461076a57602036600319011261076a57600435613185816109fa565b61318d614c4d565b6001600160a01b03811690811561188c5760208054610100600160a81b03191660089290921b610100600160a81b03169190911790557f2551960305e8f85b09658bb3075878e3e3cef37a5f7b5d43261f5e6f36b3d6a45f80a2005b3461076a57602036600319011261076a57600435613205614c9c565b60018110801561330a575b61114357613229611246825f52601360205260405f2090565b6131255761323f815f52601260205260405f2090565b541515806132ee575b6130fa577fd3b16e5046091ab13f2f5173a578843316b09aab8e498df1067ccffeb39a2148611106613298613285845f52600f60205260405f2090565b54612f85855f52601060205260405f2090565b806132c3575b6132b36110e4855f52601360205260405f2090565b6040519081529081906020820190565b6132d5845f52600f60205260405f2090565b546132e8855f52601060205260405f2090565b5561329e565b50613301815f52601260205260405f2090565b54421115613248565b5060078111613210565b3461076a575f36600319011261076a576020602454604051908152f35b3461076a57602036600319011261076a576004355f52601a602052602060ff60405f205416604051908152f35b3461076a5761336c3661197f565b90613375614c32565b61337d61526f565b600c5460a81c60ff1661338f81610848565b611dee5761339b61543c565b335f9081526018602052604090206133b290611246565b61354f575f5461270f905f19011015611ddf5760015f527f8c6065603763fec3f5742441d3833f3f43b982453612d76adb39a885e3006b5f54600f6020527f169f97de0d9a84d840042b17d3c6b9638b3d6fd9024c9eb0c7a306a17b49f88f541115611dd05761344f9161124d9161196860175491604051602081019061195d8161194f33856014916001600160601b03199060601b1681520190565b6135405761345c33615553565b5f80543382526018602052604090912060019190613479906110e4565b60015f5260106020527f8c6065603763fec3f5742441d3833f3f43b982453612d76adb39a885e3006b5f6134ad815461452d565b9055335f908152601e602052604090206134c7815461452d565b90556134d233615623565b6134ed6134e7825f52601460205260405f2090565b60019055565b60405142815233905f516020615ee35f395f51905f5290602090a4604051600180825233915f516020615ec35f395f51905f529080602081015b0390a3610a5360015f516020615f235f395f51905f5255565b630b094f2760e31b5f5260045ffd5b630c8d9eab60e31b5f5260045ffd5b3461076a575f36600319011261076a57602060ff60225460081c166040519015158152f35b3461076a575f36600319011261076a57602060405160078152f35b3461076a57606036600319011261076a576004356024356044356135c0614c9c565b600183108015613645575b6111435781811180159061363b575b61110b577f3810e2f1ff6605d577d05b3e61ef14884253f7c0eeb1c239aebc5bea5907b19791835f5260116020528060405f205581613621855f52601260205260405f2090565b556040805191825260208201929092529081908101611106565b50428111156135da565b50600783116135cb565b608036600319011261076a57600435613667816109fa565b602435613673816109fa565b6044356064356001600160401b03811161076a573660238201121561076a576136a69036906024816004013591016114f9565b91336001600160a01b03851614158061126f5780611256578061123357610a5557610a53936158c4565b604036600319011261076a576004356024356136ea614c32565b6136f261526f565b61370a61124d611246845f52601c60205260405f2090565b61387757600c5460019060a81c60ff1661372381610848565b03611dee5761373182615500565b801561110b5761270f61374982611bd45f195f540190565b11611ddf5761376481611c0d845f52601060205260405f2090565b613776835f52600f60205260405f2090565b5410611dd05761378681336155c1565b600461379a835f52601b60205260405f2090565b0180541561386e575b506137b6816137b1846143d0565b614380565b91823410611dc1575f546137d2825f52601060205260405f2090565b6137dd8482546143c3565b9055335f908152601e602052604090206137f88482546143c3565b9055613804833361571e565b5f5b83811061383057505060405191825233915f516020615ec35f395f51905f52908060208101611d18565b8083613841611d80600194866143c3565b558361384d82856143c3565b60405142815233905f516020615ee35f395f51905f5290602090a401613806565b4290555f6137a3565b6335c4f3c160e11b5f5260045ffd5b3461076a57602036600319011261076a57600435600381101561076a576138ab614c4d565b600c5460ff60a81b8260a81b169060ff60a81b191617600c557fcb08c3f93492805e6d9f1d42f6f2ea7f280e2e41c061f13eec2ada60f59719e36040516138f6816040810194610866565b4260208201528033930390a2005b3461076a57602036600319011261076a57608061392260043561480b565b61089b604051809262ffffff6060809260018060a01b0381511685526001600160401b036020820151166020860152604081015115156040860152015116910152565b3461076a575f36600319011261076a576020600d54604051908152f35b3461076a57602036600319011261076a576107e76139a1600435614955565b60405191829160208352602083019061089d565b3461076a575f36600319011261076a5760206040517fdcafc294b1f1d23b81c2d8f3b760d3d1ada4d9e4f865ba6e5173f9560600d7548152f35b3461076a575f36600319011261076a5760206040517feb54e1feee3ae17add098cbf58a47457bf5f7c3a89ceab263cbdb01b3da6d98e8152f35b3461076a57608036600319011261076a57600435602435613a49816109fa565b60443591613a56836109fa565b606435926001600160401b03841161076a573660238501121561076a578360040135926001600160401b03841161076a57366024858701011161076a576024610a53950192614a1f565b3461076a57602036600319011261076a576004355f526013602052602060ff60405f2054166040519015158152f35b3461076a57604036600319011261076a57610a53602435600435613af2826109fa565b613b0b610e34825f52600b602052600160405f20015490565b6151e7565b3461076a57602036600319011261076a57600435613b2d816109fa565b60018060a01b03165f526023602052602060ff60405f2054166040519015158152f35b3461076a57613b5e3661197f565b5f5b818110613b6957005b613b748183856146d9565b6001600160a01b0390613b87903561478b565b1633036113db5780613b9c60019284866146d9565b355f613ba7826152f8565b848060a01b03811690613bc5845f52600660205260405f2090815490565b613bce84615c0d565b613cdb575b506001600160a01b0382165f90815260056020526040902080546001600160801b030190556001600160a01b0382164260a01b17600360e01b17613c1f855f52600460205260405f2090565b558560e11b811615613c97575b505f516020615f035f395f51905f528280a4613c4c61135b835460010190565b613c578184866146d9565b356040517f23ff0e75edf108e3d0392d92e13e8c8a868ef19001bd49f9e94876dc46dff87f339180613c8e42829190602083019252565b0390a301613b60565b858401613cac815f52600460205260405f2090565b5415613cb9575b50613c2c565b83548114613cb357613cd3905f52600460205260405f2090565b555f80613cb3565b8390555f613bd3565b3461076a57604036600319011261076a57600435613d01816109fa565b602435613d0c614c4d565b613d1461526f565b6001600160a01b0382169182158015613dac575b61110b5761270f613d3e83611bd45f195f540190565b11611ddf57613d4f825f549261571e565b5f5b828110613d6e57610a5360015f516020615f235f395f51905f5255565b805f613d7f611d80600194866143c3565b555f613d8b82856143c3565b60405142815287905f516020615ee35f395f51905f5290602090a401613d51565b508115613d28565b3461076a575f36600319011261076a5760206040517f65d7a28e3265b37a6474929f336521b332c1681b933f6cb9f3376673440d862a8152f35b3461076a575f36600319011261076a576040515f602654613e0e816140af565b80845290600181169081156109875750600114613e35576107e78361091d81850382611498565b60265f9081527f744a2cf8fd7008e3d53b67916e73460df9fa5214e3ef23dd4259ca09493a3594939250905b808210613e795750909150810160200161091d61090d565b919260018160209254838588010152019101909291613e61565b3461076a57604036600319011261076a57602060ff6127cc600435613eb7816109fa565b60243590613ec4826109fa565b60018060a01b03165f526007845260405f209060018060a01b03165f5260205260405f2090565b3461076a57604036600319011261076a57602435600435613f0a614c9c565b613f1381614b70565b15613f7b576001600160a01b03613f29826152f8565b165b6001600160a01b03168015159081613f62575b50613f53575f52601960205260405f20555f80f35b639e827bdd60e01b5f5260045ffd5b60205460081c6001600160a01b0316141590505f613f3e565b5f613f2b565b3461076a57602036600319011261076a577fd8969c101aecf13f00e4e3a0b4c8be643670e8cc4fa1bd4e65b33abdc6e12b936020613fbd611dfd565b613fc5614c4d565b151560225461ff008260081b169061ff00191617602255604051908152a1005b3461076a57602036600319011261076a576004355f5260146020526020600160405f205414604051908152f35b3461076a57602036600319011261076a5760043561402f816109fa565b614037615824565b6001600160a01b03811690811561409c57600c8054610100600160a81b03198116600893841b610100600160a81b031617909155901c6001600160a01b03167f8be0079c531659141344cd1fd0a4f28419497f9722a3daafe3b4186f6b6457e05f80a3005b631e4fbdf760e01b5f525f60045260245ffd5b90600182811c921680156140dd575b60208310146140c957565b634e487b7160e01b5f52602260045260245ffd5b91607f16916140be565b3461076a57602036600319011261076a576004355f52601560205260405f20604051905f90805490614118826140af565b80855291600181169081156141805750600114614140575b6107e78461091d81860382611498565b5f90815260208120939250905b8082106141665750909150810160200161091d82614130565b91926001816020925483858801015201910190929161414d565b60ff191660208087019190915292151560051b8501909201925061091d9150839050614130565b3461076a57602036600319011261076a576004356141c4816109fa565b60018060a01b03165f52601d602052602060ff60405f2054166040519015158152f35b3461076a576141f536612a9f565b6141fd614c9c565b614205614c32565b61420d61526f565b600382108015614362575b61114357600c5460019060a81c60ff1661423181610848565b03611dee576001600160a01b03831692831561188c57811561110b57614262611246845f52601360205260405f2090565b6131255761270f61427883611bd45f195f540190565b11611ddf5761429382611c0d855f52601060205260405f2090565b6142a5845f52600f60205260405f2090565b5410611dd0576142fa825f54926142c4865f52601060205260405f2090565b6142cf8382546143c3565b90556001600160a01b0381165f908152601e602052604090206142f38382546143c3565b905561571e565b5f5b8281106143245750506040519081525f516020615ec35f395f51905f52908060208101613527565b8084614335611d80600194866143c3565b558461434182856143c3565b60405142815288905f516020615ee35f395f51905f5290602090a4016142fc565b5060078211614218565b634e487b7160e01b5f52601160045260245ffd5b8181029291811591840414171561439357565b61436c565b81156143a2570490565b634e487b7160e01b5f52601260045260245ffd5b9190820391821161439357565b9190820180921161439357565b805f52601c6020526143ea61124d60405f2060ff90541690565b61445e57614400905f52601b60205260405f2090565b600481015480156144595761442661441b61443192426143b6565b600384015490614398565b600283015490614380565b600182549201549161444382846143c3565b811115614454576108d292506143b6565b505090565b505490565b614470905f52600e60205260405f2090565b5490565b90915f925f549260015b8481106144d55760405162461bcd60e51b815260206004820152602260248201527f455243373231413a206f776e657220696e646578206f7574206f6620626f756e604482015261647360f01b6064820152608490fd5b6144de81614b70565b8061450a575b6144f1575b60010161447e565b9482811461450257600101946144e9565b509192505050565b506001600160a01b0361451c826152f8565b166001600160a01b038316146144e4565b5f1981146143935760010190565b601f8111614547575050565b60265f5260205f20906020601f840160051c83019310614581575b601f0160051c01905b818110614576575050565b5f815560010161456b565b9091508190614562565b601f821161459857505050565b5f5260205f20906020601f840160051c830193106145d0575b601f0160051c01905b8181106145c5575050565b5f81556001016145ba565b90915081906145b1565b91909182516001600160401b0381116114b957614601816145fb84546140af565b8461458b565b6020601f82116001146146405781906146319394955f92614635575b50508160011b915f199060031b1c19161790565b9055565b015190505f8061461d565b601f19821690614653845f5260205f2090565b915f5b81811061468d57509583600195969710614675575b505050811b019055565b01515f1960f88460031b161c191690555f808061466b565b9192602060018192868b015181550194019201614656565b9291906146bc60209160408652604086019061089d565b930152565b9190602060408401936146d5816002610866565b0152565b91908110156146e95760051b0190565b634e487b7160e01b5f52603260045260245ffd5b356108d2816120ca565b3d15614731573d90614718826114de565b916147266040519384611498565b82523d5f602084013e565b606090565b929190926001600160401b0384116114b9578360051b90602060405161475e82850182611498565b809681520191810192831161076a57905b82821061477b57505050565b813581526020918201910161476f565b6001600160a01b039061479d906152f8565b1690565b6001600160a01b031680156147c8575f5260056020526001600160401b0360405f20541690565b6323d3ad8160e21b5f5260045ffd5b60405190608082018281106001600160401b038211176114b9576040525f6060838281528260208201528260408201520152565b906148146147d7565b9160018110156148215750565b5f54811061482c5750565b9091505b805f52600460205260405f2054614849575f1901614830565b6108d29061595a565b6025545f9291614861826140af565b91600181169081156148c75750600114614879575050565b60255f90815292935090917f401968ff42a154441da5f6c4c935ac46b8671f0e062baaa62a7545ba53bb6e4c5b8382106148b35750500190565b6001816020925484860152019101906148a6565b60ff1916825250811515909102019150565b5f92918154916148e8836140af565b9260018116908115614930575060011461490157505050565b90919293505f5260205f205f905b83821061491c5750500190565b60018160209254848601520191019061490f565b60ff191683525050811515909102019150565b805191908290602001825e015f815290565b61496161124d82614b70565b614a1057614977815f52601460205260405f2090565b54801515806149f5575b6149bd57506108d261499561194f926159e4565b6040519283916149b76149aa60208501614852565b602f60f81b815260010190565b90614943565b6149aa9161194f6149e26149dc6108d2945f52601560205260405f2090565b926159e4565b6149b760405195869460208601906148d9565b50614a0b611246825f52601660205260405f2090565b614981565b630a14c4b560e41b5f5260045ffd5b91909392614a2b614f35565b614a3761124d84614b70565b8015614ad9575b8015614ac8575b8015614ac0575b614ab1577fd939a0ab3d907d51ef258825a7e0b42c1d74d6a523fd032fe11588e07224481a91614a7c8433615be4565b614a87848288614fde565b6040516001600160a01b03918216969091169490918291614aac914291903385614b09565b0390a4565b63074c424d60e31b5f5260045ffd5b508315614a4c565b506001600160a01b03821615614a45565b50614af5614ae9614ae9856152f8565b6001600160a01b031690565b6001600160a01b0386811691161415614a3e565b9493928060409360809360018060a01b0316885260606020890152816060890152838801375f828288010152601f8019910116850101930152565b63ffffffff60e01b1663152a902d60e11b8114908115614b62575090565b6301ffc9a760e01b14919050565b905f918060011115614b80575b50565b5f548110614b8b5750565b9091505b805f52600460205260405f205480614bb057508015614393575f1901614b8f565b600160e01b1615919050565b62a1148160e81b5f5260045ffd5b632ce44b5f60e11b5f5260045ffd5b633a954ecd60e21b5f5260045ffd5b636f96cda160e11b5f5260045ffd5b63b562e8dd60e01b5f5260045ffd5b622e076360e81b5f5260045ffd5b6368d2bf6b60e11b5f5260045ffd5b631960ccad60e11b5f5260045ffd5b60ff600c5416614c3e57565b63d93c066560e01b5f5260045ffd5b335f9081527fdf7de25b7f1fd6d0b5205f0e18f1f35bd7b8d84cce336588d184533ce43a6f76602052604090205460ff1615614c8557565b63e2517d3f60e01b5f52336004525f60245260445ffd5b335f9081527faaee105123a9cba9709d4cf94ec6a081090ac74ab052c663c381ea76e0e626b1602052604090205460ff1615614cd457565b63e2517d3f60e01b5f52336004527fc5f203f678866d513a9633a9f43a84c42f54befeb73a32c75c4858bbd2ba336860245260445ffd5b335f9081527f7aabb41b9887dc0093c744cd74ad704cf0e605a10880518010fc739828f23c45602052604090205460ff1615614d4357565b63e2517d3f60e01b5f52336004527f65d7a28e3265b37a6474929f336521b332c1681b933f6cb9f3376673440d862a60245260445ffd5b335f9081527f63bf8d49df1adeb63ed462ef6679ebdeb2ff5d9ea65b3b00103e9b399fe79f8a602052604090205460ff1615614db257565b63e2517d3f60e01b5f52336004527fbc3bede9c13127d9f696fc0d163537e2d7209c1bcb089ad5680b00700535ea4c60245260445ffd5b335f9081527f41a7a996a42bb493d5dde4dcca9562be612ac01b66d7eeade4b2e2c73329f00f602052604090205460ff1615614e2157565b63e2517d3f60e01b5f52336004527e6b97d3b00e0cfa27932db8d8710f84e2b8d72f339a1e910bf97a09597e99d660245260445ffd5b335f9081527fb2fcd25f32a43e6843d6dfe4bc0f42a4bb3aa96f8cc062e41f794ddf2810c3a1602052604090205460ff1615614e8f57565b63e2517d3f60e01b5f52336004527f10dac8c06a04bec0b551627dad28bc00d6516b0caacd1c7b345fcdb5211334e460245260445ffd5b335f9081527f8b245debdee8789183a40f51ae385745f0fe58472b20ab3ee751e2dd968933c0602052604090205460ff1615614efe57565b63e2517d3f60e01b5f52336004527feb54e1feee3ae17add098cbf58a47457bf5f7c3a89ceab263cbdb01b3da6d98e60245260445ffd5b335f9081527fcb168ddb972f6060b735e8ba4d8785a3a7e035a53c430ed3b60f741034730d0a602052604090205460ff1615614f6d57565b63e2517d3f60e01b5f52336004527fbf233dd2aafeb4d50879c4aa5c81e96d92f6e6945c906a58f9f2d1c1631b4b2660245260445ffd5b5f818152600b6020908152604080832033845290915290205460ff1615614fc85750565b63e2517d3f60e01b5f523360045260245260445ffd5b9190614fe9826152f8565b6001600160a01b03938416938116849003615152575f83815260066020526040902080546150266001600160a01b03871633908114908314171590565b615124575b6150358487615ce1565b61511b575b506001600160a01b0384165f90815260056020526040902080545f190190556001600160a01b0382165f908152600560205260409020805460010190556001600160a01b0382164260a01b17600160e11b1761509e845f52600460205260405f2090565b55600160e11b8116156150d6575b506001600160a01b03169182905f516020615f035f395f51905f525f80a4156150d157565b614bd9565b600183016150ec815f52600460205260405f2090565b54156150f9575b506150ac565b5f5481146150f357615113905f52600460205260405f2090565b555f806150f3565b5f90555f61503a565b61514861124d61124633610c708a60018060a01b03165f52600760205260405f2090565b1561502b57614bca565b614bbc565b5f818152600b602090815260408083206001600160a01b038616845290915290205460ff166151e1575f818152600b602090815260408083206001600160a01b03861684529091529020805460ff1916600117905533916001600160a01b0316907f2f8788117e7eff1d82e926ec794901d17c78024a50270940304540a733656f0d5f80a4600190565b50505f90565b5f818152600b602090815260408083206001600160a01b038616845290915290205460ff16156151e1575f818152600b602090815260408083206001600160a01b03861684529091529020805460ff1916905533916001600160a01b0316907ff6391f5c32d9c69d2a47ea670b442974b53935d1edc7fd64eb21e047a839171b5f80a4600190565b60025f516020615f235f395f51905f5254146152985760025f516020615f235f395f51905f5255565b633ee5aeb560e01b5f5260045ffd5b929091905f915b84518310156152f05760208360051b86010151908181105f146152df575f52602052600160405f205b9201916152ae565b905f52602052600160405f206152d7565b915092501490565b80600111614be857615312815f52600460205260405f2090565b549081156153295750600160e01b8116614be85790565b90505f54811015614be8575b5f19015f8181526004602052604090205490811561535c5750600160e01b8116614be85790565b9050615335565b60025f5260116020527f08037d7b151cc412d25674a4e66b334d9ae9d2e5517a7feaae5cdb828bf1c628541561542d5760025f5260116020527f08037d7b151cc412d25674a4e66b334d9ae9d2e5517a7feaae5cdb828bf1c62854421061542d5760025f5260126020527f8e1fee8c88a9e04123b21e90cae2727a7715bf522a1e46eb5934ccd05203a6b254421161542d5760025f5260136020526154277f0b9d2c0c271bb30544eb78c59bdaebdae2728e5f65814c07768a0abe90ed1923611246565b61312557565b6301f06afb60e41b5f5260045ffd5b60015f5260116020527f17bc176d2408558f6e4111feebc3cab4e16b63e967be91cde721f4c8a488b552541561542d5760015f5260116020527f17bc176d2408558f6e4111feebc3cab4e16b63e967be91cde721f4c8a488b55254421061542d5760015f5260126020527f71a67924699a20698523213e55fe499d539379d7769cd5567e2c45d583f815a354421161542d5760015f5260136020526154277f4155c2f711f2cdd34f8262ab8fb9b7020a700fe7b6948222152f7670d1fdf34d611246565b805f52601160205260405f20541561542d57805f52601160205260405f2054421061542d57615537815f52601260205260405f2090565b54421161542d57611246615427915f52601360205260405f2090565b60ff602054161580156155a0575b614b7d576001600160a01b03165f908152601e60205260409020546001810190811061439357601f541061559157565b63667c7eff60e01b5f5260045ffd5b506001600160a01b0381165f908152601d602052604090205460ff16615561565b60ff60205416158015615602575b6155fe576001600160a01b03165f908152601e602052604090205490810190811061439357601f541061559157565b5050565b506001600160a01b0381165f908152601d602052604090205460ff166155cf565b90604051615632602082611498565b5f80825254906001600160a01b0384164260a01b17600160e11b1761565f835f52600460205260405f2090565b556001600160a01b0384165f8181526005602052604090208054680100000000000000010190559283156157195760018301929460015b156156b6575b5f86865f5f516020615f035f395f51905f528180a4615696565b946001019483860361569c579291945092505f55803b6156d557509050565b5f545f198101929060015b15615704575b5f6156f961124d87600188019787615dfb565b156156e0575b614c14565b8084106156e65792509250505f540361076a57565b614c06565b916040519061572e602083611498565b5f82525f5491831561581f576001600160a01b0385164260a01b6001861460e11b1717615763845f52600460205260405f2090565b556001600160a01b0385165f818152600560205260409020805468010000000000000001870201905593841561571957808401939560015b156157bb575b5f87875f5f516020615f035f395f51905f528180a461579b565b95600101958487036157a157929550929093505f55803b6157db57505050565b9091925f549283039260015b1561580a575b5f61580061124d87600188019787615dfb565b156157e757614c14565b8084106157ed5792509250505f540361076a57565b614bf7565b600c5460081c6001600160a01b0316330361583b57565b63118cdaa760e01b5f523360045260245ffd5b335f526007602052615888826158778360405f209060018060a01b03165f5260205260405f2090565b9060ff801983541691151516179055565b60405191151582526001600160a01b03169033907f17307eab39ab6107e8899845ad3d59bd9653f200f220920489ca2b5937696c3190602090a3565b90929091336001600160a01b03841614158061594e575b80615935575b8061591d575b610a55576158f6818585614fde565b833b615903575b50505050565b6159109361124d93615e9a565b6156ff575f8080806158fd565b5061593061124d61124633610c706106f4565b6158e7565b50335f9081526021602052604090205460ff16156158e1565b5060ff602254166158db565b6159626147d7565b505f52600460205260405f20546159776147d7565b6001600160a01b038216815260a082901c6001600160401b03166020820152600160e01b82161515604082015260e89190911c606082015290565b906159bc826114de565b6159c96040519182611498565b82815280926159da601f19916114de565b0190602036910137565b805f9172184f03e93ff9f4daa797ed6e38ed64bf6a1f0160401b821015615b12575b806d04ee2d6d415b85acef8100000000600a921015615af6575b662386f26fc10000811015615ae1575b6305f5e100811015615acf575b612710811015615abf575b6064811015615ab0575b1015615aa5575b615a956021615a6a600185016159b2565b938401015b5f1901916f181899199a1a9b1b9c1cb0b131b232b360811b600a82061a8353600a900490565b801561445457615a959091615a6f565b600190910190615a59565b60029060649004930192615a52565b6004906127109004930192615a48565b6008906305f5e1009004930192615a3d565b601090662386f26fc100009004930192615a30565b6020906d04ee2d6d415b85acef81000000009004930192615a20565b506040915072184f03e93ff9f4daa797ed6e38ed64bf6a1f0160401b8104615a06565b6001600160a01b03615b46836152f8565b1690813303615bb5575b615b8581615b66855f52600660205260405f2090565b80546001600160a01b0319166001600160a01b03909216919091179055565b6001600160a01b0316907f8c5be1e5ebec7d5bd14f71427d1e84f3dd0314c0f7b2291e5b200ac8c7c3b9255f80a4565b5f82815260076020908152604080832033845290915290205460ff16615b50576367d9dca160e11b5f5260045ffd5b6001600160a01b03615bf5836152f8565b1690615b8581615b66855f52600660205260405f2090565b6001600160a01b038116151580615cda575b80615cc3575b615c2c5750565b60225460081c60ff16908115615caf575b8115615c89575b508015615c52575b6113db57565b505f80526023602052615c847fec8fa5b038da1e720ea021ba5ca9b6d584cce4d81a9a9ab37c8a07ee3bc65110611246565b615c4c565b6001600160a01b03165f908152602360205260409020615ca99150611246565b5f615c44565b9050615cbd600c5460ff1690565b90615c3d565b5060ff615cd233610c706106f4565b541615615c25565b505f615c1f565b906001600160a01b038216151580615da3575b80615d8c575b615d02575050565b60225460081c60ff16918215615d78575b8215615d4f575b508115615d29575b506113db57565b6001600160a01b03165f908152602360205260409020615d499150611246565b5f615d22565b6001600160a01b03165f908152602360205260409020909150615d7190611246565b905f615d1a565b9150615d86600c5460ff1690565b91615d13565b50615d9e60ff610c8533610c706106f4565b615cfa565b506001600160a01b0381161515615cf4565b9081602091031261076a57516108d28161076e565b6001600160a01b0391821681529116602082015260408101919091526080606082018190526108d29291019061089d565b91615e22926020925f604051809681958294630a85bd0160e11b8452843360048601615dca565b03926001600160a01b03165af15f9181615e69575b50615e5357615e44614707565b8051156156ff57805190602001fd5b6001600160e01b031916630a85bd0160e11b1490565b615e8c91925060203d602011615e93575b615e848183611498565b810190615db5565b905f615e37565b503d615e7a565b906020925f615e22959360405196879586948593630a85bd0160e11b85523360048601615dca56fe33f5354c966400b6d19913afba76c0c8435e0a1308cae6e1c8187a5f08ddf54d5a3358a3d27a5373c0df2604662088d37894d56b7cfd27f315770440f4e0d919ddf252ad1be2c89b69c2b068fc378daa952ba7f163c4a11628f55a4df523b3ef9b779b17422d0df92223018b32b4d1fa46e071723d6817e2486d003becc55f00a2646970667358221220c18515fce56203ed5e06f3c959c15375a5aaa95c45d831d0dfeba41251b2d7a564736f6c634300081c00332f8788117e7eff1d82e926ec794901d17c78024a50270940304540a733656f0d7aabb41b9887dc0093c744cd74ad704cf0e605a10880518010fc739828f23c45b2fcd25f32a43e6843d6dfe4bc0f42a4bb3aa96f8cc062e41f794ddf2810c3a1cb168ddb972f6060b735e8ba4d8785a3a7e035a53c430ed3b60f741034730d0adf7de25b7f1fd6d0b5205f0e18f1f35bd7b8d84cce336588d184533ce43a6f7663bf8d49df1adeb63ed462ef6679ebdeb2ff5d9ea65b3b00103e9b399fe79f8ab0813042084980e6c382d768b67fd12ee1f06f099e6b1e046c220eb9ee5a48be41a7a996a42bb493d5dde4dcca9562be612ac01b66d7eeade4b2e2c73329f00faaee105123a9cba9709d4cf94ec6a081090ac74ab052c663c381ea76e0e626b18b245debdee8789183a40f51ae385745f0fe58472b20ab3ee751e2dd968933c0",
  "linkReferences": {},
  "deployedLinkReferences": {},
  "immutableReferences": {},
  "inputSourceName": "project/contracts/BearthNFT.sol",
  "buildInfoId": "solc-0_8_28-797893ca6381e8b97b932793a9ad16748758657f"
}