{
  "_format": "hh3-artifact-1",
  "contractName": "RewardToken",
  "sourceName": "contracts/RewardToken.sol",
  "abi": [
    {
      "inputs": [
        {
          "internalType": "address",
          "name": "adminWallet",
          "type": "address"
        }
      ],
      "stateMutability": "nonpayable",
      "type": "constructor"
    },
    {
      "inputs": [],
      "name": "AccessControlBadConfirmation",
      "type": "error"
    },
    {
      "inputs": [
        {
          "internalType": "address",
          "name": "account",
          "type": "address"
        },
        {
          "internalType": "bytes32",
          "name": "neededRole",
          "type": "bytes32"
        }
      ],
      "name": "AccessControlUnauthorizedAccount",
      "type": "error"
    },
    {
      "inputs": [],
      "name": "ECDSAInvalidSignature",
      "type": "error"
    },
    {
      "inputs": [
        {
          "internalType": "uint256",
          "name": "length",
          "type": "uint256"
        }
      ],
      "name": "ECDSAInvalidSignatureLength",
      "type": "error"
    },
    {
      "inputs": [
        {
          "internalType": "bytes32",
          "name": "s",
          "type": "bytes32"
        }
      ],
      "name": "ECDSAInvalidSignatureS",
      "type": "error"
    },
    {
      "inputs": [
        {
          "internalType": "address",
          "name": "spender",
          "type": "address"
        },
        {
          "internalType": "uint256",
          "name": "allowance",
          "type": "uint256"
        },
        {
          "internalType": "uint256",
          "name": "needed",
          "type": "uint256"
        }
      ],
      "name": "ERC20InsufficientAllowance",
      "type": "error"
    },
    {
      "inputs": [
        {
          "internalType": "address",
          "name": "sender",
          "type": "address"
        },
        {
          "internalType": "uint256",
          "name": "balance",
          "type": "uint256"
        },
        {
          "internalType": "uint256",
          "name": "needed",
          "type": "uint256"
        }
      ],
      "name": "ERC20InsufficientBalance",
      "type": "error"
    },
    {
      "inputs": [
        {
          "internalType": "address",
          "name": "approver",
          "type": "address"
        }
      ],
      "name": "ERC20InvalidApprover",
      "type": "error"
    },
    {
      "inputs": [
        {
          "internalType": "address",
          "name": "receiver",
          "type": "address"
        }
      ],
      "name": "ERC20InvalidReceiver",
      "type": "error"
    },
    {
      "inputs": [
        {
          "internalType": "address",
          "name": "sender",
          "type": "address"
        }
      ],
      "name": "ERC20InvalidSender",
      "type": "error"
    },
    {
      "inputs": [
        {
          "internalType": "address",
          "name": "spender",
          "type": "address"
        }
      ],
      "name": "ERC20InvalidSpender",
      "type": "error"
    },
    {
      "inputs": [
        {
          "internalType": "uint256",
          "name": "deadline",
          "type": "uint256"
        }
      ],
      "name": "ERC2612ExpiredSignature",
      "type": "error"
    },
    {
      "inputs": [
        {
          "internalType": "address",
          "name": "signer",
          "type": "address"
        },
        {
          "internalType": "address",
          "name": "owner",
          "type": "address"
        }
      ],
      "name": "ERC2612InvalidSigner",
      "type": "error"
    },
    {
      "inputs": [
        {
          "internalType": "address",
          "name": "account",
          "type": "address"
        },
        {
          "internalType": "uint256",
          "name": "currentNonce",
          "type": "uint256"
        }
      ],
      "name": "InvalidAccountNonce",
      "type": "error"
    },
    {
      "inputs": [],
      "name": "InvalidShortString",
      "type": "error"
    },
    {
      "inputs": [
        {
          "internalType": "string",
          "name": "str",
          "type": "string"
        }
      ],
      "name": "StringTooLong",
      "type": "error"
    },
    {
      "anonymous": false,
      "inputs": [
        {
          "indexed": true,
          "internalType": "address",
          "name": "owner",
          "type": "address"
        },
        {
          "indexed": true,
          "internalType": "address",
          "name": "spender",
          "type": "address"
        },
        {
          "indexed": false,
          "internalType": "uint256",
          "name": "value",
          "type": "uint256"
        }
      ],
      "name": "Approval",
      "type": "event"
    },
    {
      "anonymous": false,
      "inputs": [],
      "name": "EIP712DomainChanged",
      "type": "event"
    },
    {
      "anonymous": false,
      "inputs": [
        {
          "indexed": true,
          "internalType": "bytes32",
          "name": "role",
          "type": "bytes32"
        },
        {
          "indexed": true,
          "internalType": "bytes32",
          "name": "previousAdminRole",
          "type": "bytes32"
        },
        {
          "indexed": true,
          "internalType": "bytes32",
          "name": "newAdminRole",
          "type": "bytes32"
        }
      ],
      "name": "RoleAdminChanged",
      "type": "event"
    },
    {
      "anonymous": false,
      "inputs": [
        {
          "indexed": true,
          "internalType": "bytes32",
          "name": "role",
          "type": "bytes32"
        },
        {
          "indexed": true,
          "internalType": "address",
          "name": "account",
          "type": "address"
        },
        {
          "indexed": true,
          "internalType": "address",
          "name": "sender",
          "type": "address"
        }
      ],
      "name": "RoleGranted",
      "type": "event"
    },
    {
      "anonymous": false,
      "inputs": [
        {
          "indexed": true,
          "internalType": "bytes32",
          "name": "role",
          "type": "bytes32"
        },
        {
          "indexed": true,
          "internalType": "address",
          "name": "account",
          "type": "address"
        },
        {
          "indexed": true,
          "internalType": "address",
          "name": "sender",
          "type": "address"
        }
      ],
      "name": "RoleRevoked",
      "type": "event"
    },
    {
      "anonymous": false,
      "inputs": [
        {
          "indexed": true,
          "internalType": "address",
          "name": "to",
          "type": "address"
        },
        {
          "indexed": false,
          "internalType": "uint256",
          "name": "amount",
          "type": "uint256"
        },
        {
          "indexed": true,
          "internalType": "address",
          "name": "minter",
          "type": "address"
        }
      ],
      "name": "TokensMinted",
      "type": "event"
    },
    {
      "anonymous": false,
      "inputs": [
        {
          "indexed": true,
          "internalType": "address",
          "name": "from",
          "type": "address"
        },
        {
          "indexed": true,
          "internalType": "address",
          "name": "to",
          "type": "address"
        },
        {
          "indexed": false,
          "internalType": "uint256",
          "name": "value",
          "type": "uint256"
        }
      ],
      "name": "Transfer",
      "type": "event"
    },
    {
      "inputs": [],
      "name": "DEFAULT_ADMIN_ROLE",
      "outputs": [
        {
          "internalType": "bytes32",
          "name": "",
          "type": "bytes32"
        }
      ],
      "stateMutability": "view",
      "type": "function"
    },
    {
      "inputs": [],
      "name": "DOMAIN_SEPARATOR",
      "outputs": [
        {
          "internalType": "bytes32",
          "name": "",
          "type": "bytes32"
        }
      ],
      "stateMutability": "view",
      "type": "function"
    },
    {
      "inputs": [],
      "name": "MINTER_ROLE",
      "outputs": [
        {
          "internalType": "bytes32",
          "name": "",
          "type": "bytes32"
        }
      ],
      "stateMutability": "view",
      "type": "function"
    },
    {
      "inputs": [
        {
          "internalType": "address",
          "name": "owner",
          "type": "address"
        },
        {
          "internalType": "address",
          "name": "spender",
          "type": "address"
        }
      ],
      "name": "allowance",
      "outputs": [
        {
          "internalType": "uint256",
          "name": "",
          "type": "uint256"
        }
      ],
      "stateMutability": "view",
      "type": "function"
    },
    {
      "inputs": [
        {
          "internalType": "address",
          "name": "spender",
          "type": "address"
        },
        {
          "internalType": "uint256",
          "name": "value",
          "type": "uint256"
        }
      ],
      "name": "approve",
      "outputs": [
        {
          "internalType": "bool",
          "name": "",
          "type": "bool"
        }
      ],
      "stateMutability": "nonpayable",
      "type": "function"
    },
    {
      "inputs": [
        {
          "internalType": "address",
          "name": "account",
          "type": "address"
        }
      ],
      "name": "balanceOf",
      "outputs": [
        {
          "internalType": "uint256",
          "name": "",
          "type": "uint256"
        }
      ],
      "stateMutability": "view",
      "type": "function"
    },
    {
      "inputs": [],
      "name": "decimals",
      "outputs": [
        {
          "internalType": "uint8",
          "name": "",
          "type": "uint8"
        }
      ],
      "stateMutability": "view",
      "type": "function"
    },
    {
      "inputs": [],
      "name": "eip712Domain",
      "outputs": [
        {
          "internalType": "bytes1",
          "name": "fields",
          "type": "bytes1"
        },
        {
          "internalType": "string",
          "name": "name",
          "type": "string"
        },
        {
          "internalType": "string",
          "name": "version",
          "type": "string"
        },
        {
          "internalType": "uint256",
          "name": "chainId",
          "type": "uint256"
        },
        {
          "internalType": "address",
          "name": "verifyingContract",
          "type": "address"
        },
        {
          "internalType": "bytes32",
          "name": "salt",
          "type": "bytes32"
        },
        {
          "internalType": "uint256[]",
          "name": "extensions",
          "type": "uint256[]"
        }
      ],
      "stateMutability": "view",
      "type": "function"
    },
    {
      "inputs": [
        {
          "internalType": "bytes32",
          "name": "role",
          "type": "bytes32"
        }
      ],
      "name": "getRoleAdmin",
      "outputs": [
        {
          "internalType": "bytes32",
          "name": "",
          "type": "bytes32"
        }
      ],
      "stateMutability": "view",
      "type": "function"
    },
    {
      "inputs": [
        {
          "internalType": "bytes32",
          "name": "role",
          "type": "bytes32"
        },
        {
          "internalType": "address",
          "name": "account",
          "type": "address"
        }
      ],
      "name": "grantRole",
      "outputs": [],
      "stateMutability": "nonpayable",
      "type": "function"
    },
    {
      "inputs": [
        {
          "internalType": "bytes32",
          "name": "role",
          "type": "bytes32"
        },
        {
          "internalType": "address",
          "name": "account",
          "type": "address"
        }
      ],
      "name": "hasRole",
      "outputs": [
        {
          "internalType": "bool",
          "name": "",
          "type": "bool"
        }
      ],
      "stateMutability": "view",
      "type": "function"
    },
    {
      "inputs": [
        {
          "internalType": "address",
          "name": "to",
          "type": "address"
        },
        {
          "internalType": "uint256",
          "name": "amount",
          "type": "uint256"
        }
      ],
      "name": "mint",
      "outputs": [],
      "stateMutability": "nonpayable",
      "type": "function"
    },
    {
      "inputs": [],
      "name": "name",
      "outputs": [
        {
          "internalType": "string",
          "name": "",
          "type": "string"
        }
      ],
      "stateMutability": "view",
      "type": "function"
    },
    {
      "inputs": [
        {
          "internalType": "address",
          "name": "owner",
          "type": "address"
        }
      ],
      "name": "nonces",
      "outputs": [
        {
          "internalType": "uint256",
          "name": "",
          "type": "uint256"
        }
      ],
      "stateMutability": "view",
      "type": "function"
    },
    {
      "inputs": [
        {
          "internalType": "address",
          "name": "owner",
          "type": "address"
        },
        {
          "internalType": "address",
          "name": "spender",
          "type": "address"
        },
        {
          "internalType": "uint256",
          "name": "value",
          "type": "uint256"
        },
        {
          "internalType": "uint256",
          "name": "deadline",
          "type": "uint256"
        },
        {
          "internalType": "uint8",
          "name": "v",
          "type": "uint8"
        },
        {
          "internalType": "bytes32",
          "name": "r",
          "type": "bytes32"
        },
        {
          "internalType": "bytes32",
          "name": "s",
          "type": "bytes32"
        }
      ],
      "name": "permit",
      "outputs": [],
      "stateMutability": "nonpayable",
      "type": "function"
    },
    {
      "inputs": [
        {
          "internalType": "bytes32",
          "name": "role",
          "type": "bytes32"
        },
        {
          "internalType": "address",
          "name": "callerConfirmation",
          "type": "address"
        }
      ],
      "name": "renounceRole",
      "outputs": [],
      "stateMutability": "nonpayable",
      "type": "function"
    },
    {
      "inputs": [
        {
          "internalType": "bytes32",
          "name": "role",
          "type": "bytes32"
        },
        {
          "internalType": "address",
          "name": "account",
          "type": "address"
        }
      ],
      "name": "revokeRole",
      "outputs": [],
      "stateMutability": "nonpayable",
      "type": "function"
    },
    {
      "inputs": [
        {
          "internalType": "address",
          "name": "minter",
          "type": "address"
        },
        {
          "internalType": "bool",
          "name": "enabled",
          "type": "bool"
        }
      ],
      "name": "setMinter",
      "outputs": [],
      "stateMutability": "nonpayable",
      "type": "function"
    },
    {
      "inputs": [
        {
          "internalType": "bytes4",
          "name": "interfaceId",
          "type": "bytes4"
        }
      ],
      "name": "supportsInterface",
      "outputs": [
        {
          "internalType": "bool",
          "name": "",
          "type": "bool"
        }
      ],
      "stateMutability": "view",
      "type": "function"
    },
    {
      "inputs": [],
      "name": "symbol",
      "outputs": [
        {
          "internalType": "string",
          "name": "",
          "type": "string"
        }
      ],
      "stateMutability": "view",
      "type": "function"
    },
    {
      "inputs": [],
      "name": "totalSupply",
      "outputs": [
        {
          "internalType": "uint256",
          "name": "",
          "type": "uint256"
        }
      ],
      "stateMutability": "view",
      "type": "function"
    },
    {
      "inputs": [
        {
          "internalType": "address",
          "name": "to",
          "type": "address"
        },
        {
          "internalType": "uint256",
          "name": "value",
          "type": "uint256"
        }
      ],
      "name": "transfer",
      "outputs": [
        {
          "internalType": "bool",
          "name": "",
          "type": "bool"
        }
      ],
      "stateMutability": "nonpayable",
      "type": "function"
    },
    {
      "inputs": [
        {
          "internalType": "address",
          "name": "from",
          "type": "address"
        },
        {
          "internalType": "address",
          "name": "to",
          "type": "address"
        },
        {
          "internalType": "uint256",
          "name": "value",
          "type": "uint256"
        }
      ],
      "name": "transferFrom",
      "outputs": [
        {
          "internalType": "bool",
          "name": "",
          "type": "bool"
        }
      ],
      "stateMutability": "nonpayable",
      "type": "function"
    }
  ],
  "bytecode": "0x61016080604052346104c357602081611b77803803809161002082856104c7565b8339810103126104c357516001600160a01b0381168082036104c35760405161004a6040826104c7565b600d8152602081016c1099585c9d1a0814995dd85c99609a1b8152604051906100746040836104c7565b600d82526c1099585c9d1a0814995dd85c99609a1b60208301526040519261009d6040856104c7565b600384526210949560ea1b6020850152604051936100bc6040866104c7565b60018552603160f81b60208601908152845190946001600160401b0382116103c65760035490600182811c921680156104b9575b60208310146103a85781601f84931161044b575b50602090601f83116001146103e5575f926103da575b50508160011b915f199060031b1c1916176003555b8051906001600160401b0382116103c65760045490600182811c921680156103bc575b60208310146103a85781601f84931161033a575b50602090601f83116001146102d4575f926102c9575b50508160011b915f199060031b1c1916176004555b61019a81610573565b610120526101a7846106fa565b61014052519020918260e05251902080610100524660a0526040519060208201927f8b73c3c69bb8fe3d512ecc4cf759cc79239f7b179b0ffacaa9a75d522b39400f8452604083015260608201524660808201523060a082015260a0815261021060c0826104c7565b5190206080523060c05215610284576102329061022c336104ea565b506104ea565b506040516113249081610833823960805181610eb8015260a05181610f75015260c05181610e82015260e05181610f0701526101005181610f2d01526101205181610580015261014051816105a90152f35b60405162461bcd60e51b815260206004820152601560248201527f496e76616c69642061646d696e206164647265737300000000000000000000006044820152606490fd5b015190505f8061017c565b60045f9081528281209350601f198516905b818110610322575090846001959493921061030a575b505050811b01600455610191565b01515f1960f88460031b161c191690555f80806102fc565b929360206001819287860151815501950193016102e6565b60045f529091507f8a35acfbc15ff81a39ae7d344fd709f28e8600b4aa8c65c6b64bfe7fe36bd19b601f840160051c8101916020851061039e575b90601f859493920160051c01905b8181106103905750610166565b5f8155849350600101610383565b9091508190610375565b634e487b7160e01b5f52602260045260245ffd5b91607f1691610152565b634e487b7160e01b5f52604160045260245ffd5b015190505f8061011a565b60035f9081528281209350601f198516905b818110610433575090846001959493921061041b575b505050811b0160035561012f565b01515f1960f88460031b161c191690555f808061040d565b929360206001819287860151815501950193016103f7565b60035f529091507fc2575a0e9e593c00f959f8c92f12db2869c3395a3b0502d05e2516446f71f85b601f840160051c810191602085106104af575b90601f859493920160051c01905b8181106104a15750610104565b5f8155849350600101610494565b9091508190610486565b91607f16916100f0565b5f80fd5b601f909101601f19168101906001600160401b038211908210176103c657604052565b6001600160a01b0381165f9081525f516020611b575f395f51905f52602052604090205460ff1661056e576001600160a01b03165f8181525f516020611b575f395f51905f5260205260408120805460ff191660011790553391907f2f8788117e7eff1d82e926ec794901d17c78024a50270940304540a733656f0d8180a4600190565b505f90565b908151602081105f146105ed575090601f8151116105ad57602081519101516020821061059e571790565b5f198260200360031b1b161790565b604460209160405192839163305a27a960e01b83528160048401528051918291826024860152018484015e5f828201840152601f01601f19168101030190fd5b6001600160401b0381116103c657600554600181811c911680156106f0575b60208210146103a857601f81116106bd575b50602092601f821160011461065c57928192935f92610651575b50508160011b915f199060031b1c19161760055560ff90565b015190505f80610638565b601f1982169360055f52805f20915f5b8681106106a5575083600195961061068d575b505050811b0160055560ff90565b01515f1960f88460031b161c191690555f808061067f565b9192602060018192868501518155019401920161066c565b60055f52601f60205f20910160051c810190601f830160051c015b8181106106e5575061061e565b5f81556001016106d8565b90607f169061060c565b908151602081105f14610725575090601f8151116105ad57602081519101516020821061059e571790565b6001600160401b0381116103c657600654600181811c91168015610828575b60208210146103a857601f81116107f5575b50602092601f821160011461079457928192935f92610789575b50508160011b915f199060031b1c19161760065560ff90565b015190505f80610770565b601f1982169360065f52805f20915f5b8681106107dd57508360019596106107c5575b505050811b0160065560ff90565b01515f1960f88460031b161c191690555f80806107b7565b919260206001819286850151815501940192016107a4565b60065f52601f60205f20910160051c810190601f830160051c015b81811061081d5750610756565b5f8155600101610810565b90607f169061074456fe6080806040526004361015610012575f80fd5b5f3560e01c90816301ffc9a714610ad25750806306fdde0314610a2d578063095ea7b314610a0757806318160ddd146109ea57806323b872dd1461090b578063248a9ca3146108e05780632f2ff15d146108a2578063313ce567146108875780633644e5151461086557806336568abe1461082157806340c10f19146106cf57806370a08231146106985780637ecebe001461066057806384b0196e1461056857806391d148541461051f57806395d89b411461043d578063a217fddf14610423578063a9059cbb146103f2578063cf456ae71461031c578063d505accf146101d9578063d5391393146101b2578063d547741f1461016d5763dd62ed3e14610119575f80fd5b3461016957604036600319011261016957610132610b49565b61013a610b5f565b6001600160a01b039182165f908152600160209081526040808320949093168252928352819020549051908152f35b5f80fd5b34610169576040366003190112610169576101b060043561018c610b5f565b906101ab6101a6825f526008602052600160405f20015490565b610d21565b61102c565b005b34610169575f3660031901126101695760206040515f5160206112cf5f395f51905f528152f35b346101695760e0366003190112610169576101f2610b49565b6101fa610b5f565b604435906064359260843560ff8116810361016957844211610309576102ce6102d79160018060a01b03841696875f52600760205260405f20908154916001830190556040519060208201927f6e71edae12b1b97f4d1f60370fef10105fa2faae0126114a169c64845d6126c984528a604084015260018060a01b038916606084015289608084015260a083015260c082015260c0815261029c60e082610c2e565b5190206102a7610e7f565b906040519161190160f01b83526002830152602282015260c43591604260a43592206111ad565b9092919261123a565b6001600160a01b03168481036102f257506101b093506110b0565b84906325c0072360e11b5f5260045260245260445ffd5b8463313c898160e11b5f5260045260245ffd5b3461016957604036600319011261016957610335610b49565b602435801515810361016957335f9081527f5eff886ea0ce6ca488a3d6e336d6c0f75f46d19b42c06ce5ee98e42c96d256c7602052604090205460ff16156103db576001600160a01b0382161561039d5715610394576101b090610d5b565b6101b090610f9b565b60405162461bcd60e51b8152602060048201526016602482015275496e76616c6964206d696e746572206164647265737360501b6044820152606490fd5b63e2517d3f60e01b5f52336004525f60245260445ffd5b346101695760403660031901126101695761041861040e610b49565b6024359033610c64565b602060405160018152f35b34610169575f3660031901126101695760206040515f8152f35b34610169575f366003190112610169576040515f60045461045d81610b75565b80845290600181169081156104fb575060011461049d575b6104998361048581850382610c2e565b604051918291602083526020830190610b25565b0390f35b60045f9081527f8a35acfbc15ff81a39ae7d344fd709f28e8600b4aa8c65c6b64bfe7fe36bd19b939250905b8082106104e157509091508101602001610485610475565b9192600181602092548385880101520191019092916104c9565b60ff191660208086019190915291151560051b840190910191506104859050610475565b3461016957604036600319011261016957610538610b5f565b6004355f52600860205260405f209060018060a01b03165f52602052602060ff60405f2054166040519015158152f35b34610169575f366003190112610169576106046105a47f0000000000000000000000000000000000000000000000000000000000000000611113565b6105cd7f0000000000000000000000000000000000000000000000000000000000000000611176565b6020610612604051926105e08385610c2e565b5f84525f368137604051958695600f60f81b875260e08588015260e0870190610b25565b908582036040870152610b25565b4660608501523060808501525f60a085015283810360c08501528180845192838152019301915f5b82811061064957505050500390f35b83518552869550938101939281019260010161063a565b34610169576020366003190112610169576001600160a01b03610681610b49565b165f526007602052602060405f2054604051908152f35b34610169576020366003190112610169576001600160a01b036106b9610b49565b165f525f602052602060405f2054604051908152f35b34610169576040366003190112610169576106e8610b49565b335f9081525f5160206112af5f395f51905f526020526040902054602435919060ff16156107fd576001600160a01b031680156107c1576002548281018091116107ad57600255806107975781600254036002555b805f7fddf252ad1be2c89b69c2b068fc378daa952ba7f163c4a11628f55a4df523b3ef6020604051868152a36040519182527f969cd201f68f120baff2bf3c59bc3b534434e08b69a71a14ab85cb79cd3b63e460203393a3005b805f525f60205260405f2082815401905561073d565b634e487b7160e01b5f52601160045260245ffd5b60405162461bcd60e51b81526020600482015260146024820152734d696e7420746f207a65726f206164647265737360601b6044820152606490fd5b63e2517d3f60e01b5f52336004525f5160206112cf5f395f51905f5260245260445ffd5b346101695760403660031901126101695761083a610b5f565b336001600160a01b03821603610856576101b09060043561102c565b63334bd91960e11b5f5260045ffd5b34610169575f36600319011261016957602061087f610e7f565b604051908152f35b34610169575f36600319011261016957602060405160128152f35b34610169576040366003190112610169576101b06004356108c1610b5f565b906108db6101a6825f526008602052600160405f20015490565b610df3565b3461016957602036600319011261016957602061087f6004355f526008602052600160405f20015490565b3461016957606036600319011261016957610924610b49565b61092c610b5f565b6001600160a01b0382165f818152600160209081526040808320338452909152902054909260443592915f19811061096a575b506104189350610c64565b8381106109cf5784156109bc5733156109a957610418945f52600160205260405f2060018060a01b0333165f526020528360405f20910390558461095f565b634a1406b160e11b5f525f60045260245ffd5b63e602df0560e01b5f525f60045260245ffd5b8390637dc7a0d960e11b5f523360045260245260445260645ffd5b34610169575f366003190112610169576020600254604051908152f35b3461016957604036600319011261016957610418610a23610b49565b60243590336110b0565b34610169575f366003190112610169576040515f600354610a4d81610b75565b80845290600181169081156104fb5750600114610a74576104998361048581850382610c2e565b60035f9081527fc2575a0e9e593c00f959f8c92f12db2869c3395a3b0502d05e2516446f71f85b939250905b808210610ab857509091508101602001610485610475565b919260018160209254838588010152019101909291610aa0565b34610169576020366003190112610169576004359063ffffffff60e01b821680920361016957602091637965db0b60e01b8114908115610b14575b5015158152f35b6301ffc9a760e01b14905083610b0d565b805180835260209291819084018484015e5f828201840152601f01601f1916010190565b600435906001600160a01b038216820361016957565b602435906001600160a01b038216820361016957565b90600182811c92168015610ba3575b6020831014610b8f57565b634e487b7160e01b5f52602260045260245ffd5b91607f1691610b84565b5f9291815491610bbc83610b75565b8083529260018116908115610c115750600114610bd857505050565b5f9081526020812093945091925b838310610bf7575060209250010190565b600181602092949394548385870101520191019190610be6565b915050602093945060ff929192191683830152151560051b010190565b90601f8019910116810190811067ffffffffffffffff821117610c5057604052565b634e487b7160e01b5f52604160045260245ffd5b6001600160a01b0316908115610d0e576001600160a01b0316918215610cfb57815f525f60205260405f2054818110610ce257817fddf252ad1be2c89b69c2b068fc378daa952ba7f163c4a11628f55a4df523b3ef92602092855f525f84520360405f2055845f525f825260405f20818154019055604051908152a3565b8263391434e360e21b5f5260045260245260445260645ffd5b63ec442f0560e01b5f525f60045260245ffd5b634b637e8f60e11b5f525f60045260245ffd5b5f81815260086020908152604080832033845290915290205460ff1615610d455750565b63e2517d3f60e01b5f523360045260245260445ffd5b6001600160a01b0381165f9081525f5160206112af5f395f51905f52602052604090205460ff16610dee576001600160a01b03165f8181525f5160206112af5f395f51905f5260205260408120805460ff191660011790553391905f5160206112cf5f395f51905f52907f2f8788117e7eff1d82e926ec794901d17c78024a50270940304540a733656f0d9080a4600190565b505f90565b5f8181526008602090815260408083206001600160a01b038616845290915290205460ff16610e79575f8181526008602090815260408083206001600160a01b0395909516808452949091528120805460ff19166001179055339291907f2f8788117e7eff1d82e926ec794901d17c78024a50270940304540a733656f0d9080a4600190565b50505f90565b307f00000000000000000000000000000000000000000000000000000000000000006001600160a01b03161480610f72575b15610eda577f000000000000000000000000000000000000000000000000000000000000000090565b60405160208101907f8b73c3c69bb8fe3d512ecc4cf759cc79239f7b179b0ffacaa9a75d522b39400f82527f000000000000000000000000000000000000000000000000000000000000000060408201527f000000000000000000000000000000000000000000000000000000000000000060608201524660808201523060a082015260a08152610f6c60c082610c2e565b51902090565b507f00000000000000000000000000000000000000000000000000000000000000004614610eb1565b6001600160a01b0381165f9081525f5160206112af5f395f51905f52602052604090205460ff1615610dee576001600160a01b03165f8181525f5160206112af5f395f51905f5260205260408120805460ff191690553391905f5160206112cf5f395f51905f52907ff6391f5c32d9c69d2a47ea670b442974b53935d1edc7fd64eb21e047a839171b9080a4600190565b5f8181526008602090815260408083206001600160a01b038616845290915290205460ff1615610e79575f8181526008602090815260408083206001600160a01b0395909516808452949091528120805460ff19169055339291907ff6391f5c32d9c69d2a47ea670b442974b53935d1edc7fd64eb21e047a839171b9080a4600190565b6001600160a01b03169081156109bc576001600160a01b03169182156109a95760207f8c5be1e5ebec7d5bd14f71427d1e84f3dd0314c0f7b2291e5b200ac8c7c3b92591835f526001825260405f20855f5282528060405f2055604051908152a3565b60ff81146111595760ff811690601f821161114a5760405191611137604084610c2e565b6020808452838101919036833783525290565b632cd44ac360e21b5f5260045ffd5b506040516111738161116c816005610bad565b0382610c2e565b90565b60ff811461119a5760ff811690601f821161114a5760405191611137604084610c2e565b506040516111738161116c816006610bad565b91907f7fffffffffffffffffffffffffffffff5d576e7357a4501ddfe92f46681b20a0841161122f579160209360809260ff5f9560405194855216868401526040830152606082015282805260015afa15611224575f516001600160a01b0381161561121a57905f905f90565b505f906001905f90565b6040513d5f823e3d90fd5b5050505f9160039190565b600481101561129a578061124c575050565b600181036112635763f645eedf60e01b5f5260045ffd5b6002810361127e575063fce698f760e01b5f5260045260245ffd5b6003146112885750565b6335e2f38360e21b5f5260045260245ffd5b634e487b7160e01b5f52602160045260245ffdfe51a495916474fe1a0c0fcfb65a8a97682b84a054118858cdd1f5dfd7fc0919eb9f2df0fed2c77648de5860a4cc508cd0818c85b8b8a1ab4ceeef8d981c8956a6a26469706673582212203f95ecd8b98f3261e167a2efd224a1ed81a9bb37df5bfadbfb71bfb2837e84f064736f6c634300081c00335eff886ea0ce6ca488a3d6e336d6c0f75f46d19b42c06ce5ee98e42c96d256c7",
  "linkReferences": {},
  "deployedLinkReferences": {},
  "immutableReferences": {
    "7044": [
      {
        "length": 32,
        "start": 3768
      }
    ],
    "7046": [
      {
        "length": 32,
        "start": 3957
      }
    ],
    "7048": [
      {
        "length": 32,
        "start": 3714
      }
    ],
    "7050": [
      {
        "length": 32,
        "start": 3847
      }
    ],
    "7052": [
      {
        "length": 32,
        "start": 3885
      }
    ],
    "7055": [
      {
        "length": 32,
        "start": 1408
      }
    ],
    "7058": [
      {
        "length": 32,
        "start": 1449
      }
    ]
  },
  "inputSourceName": "project/contracts/RewardToken.sol",
  "buildInfoId": "solc-0_8_28-797893ca6381e8b97b932793a9ad16748758657f"
}